:020000042000DA
:1000000000980020A5040020AD040020C5040020B5
:1000100000000000000000000000000000000000E0
:10002000000000000000000000000000DD040020CF
:100030000000000000000000F5040020F70400208C
:10004000AF330020993400200D31030087340020A5
:10005000113400208D310300A7340020B534002076
:10006000CB2E002049210020F5340020AD310300C3
:10007000578102000D2D0020F9040020F904002012
:10008000F9040020F9040020F904002015210020C3
:10009000192100201D2100202121002025210020E0
:020000042000DA
:1001600032000000EF06002019300020B7390020CF
:10017000000000000000000063800200BD8002005B
:10018000310B0020FB800200198102003581020042
:100190005D810200E9310020BF0B0020050B00202B
:1001A000110B002000000000000000003F000000D4
:1001B000F48B002000040000740B080048010000CC
:1001C0006807080000040000C80C080020050000B3
:1001D000000000002000000048000000580000005F
:1001E0006800000004010000160100002801000062
:1001F0002E010000202A00008E2E000001000000C9
:1002000088130000A1300020E9600200FD93020085
:10021000AD14002019280300A57402006105002018
:1002200003000000D5200200FD390020040000007A
:10023000D74902000F4902004F0D002063910200D0
:10024000B7910200BF910200078202007182020092
:1002500010770020AD8302009384020041850200E4
:1002600015860200378602005F860200758602004E
:10027000F9870200258902005D8A0200D38C020002
:10028000098D02000F900200438D0200278E0200AC
:10029000F98E0200478F0200670A0020D58F020006
:1002A00049510200775102002F5202001000000055
:1002B00020030000803E000000000000000000005D
:020000042000DA
:1002C000504600030003983A6400F401B80B000C98
:1002D000B80B120030003000CD009A01120024004B
:1002E00030006400B0001800280012001200D0078F
:1002F0000000FFFF00000000000000000000000000
:100300001F000002444131343538302D30310000B7
:1003100000000000000000000000000000000000DD
:0403200000000000D9
:020000042000DA
:10034000FFFF010000C201000000000000000000EB
:100350000000F40101000118000B05030A18F5FE66
:1003600011072F2A93A6BDD84152AC0B10992EC667
:10037000FEED000000000000000000000000000092
:10038000000000000000000000000000000000006D
:1003900000000000000000000000666B5F776174E1
:1003A0006368312E300000000000000000000000F3
:1003B000000000000000000000000000000000003D
:1003C000000000000000000000000000000000002D
:1003D0000000000000000000010000CAEA80D00711
:0403E000064064323D
:020000042000DA
:100440000348854606F054FD00480047C7200200D7
:10045000009800200F4906200880FF200E49013037
:1004600008600E4988683E2290432E308860002242
:10047000052000070280018A0F231B021943018215
:100480000121C904064804C1401E0028FBDA62B6F7
:10049000704700000034005080E100E0003300505D
:1004A000FF0B00001548804715480047042071469F
:1004B000084203D0EFF3098012490847EFF30880A0
:1004C0001049084704207146084203D0EFF3098021
:1004D0000D490847EFF308800B490847042071468F
:1004E000084203D0EFF3098008490847EFF308807A
:1004F00006490847FEE7FEE7FEE700005504002036
:10050000410400202905002011050020650F00206E
:100510000349C8200880034908204880FEE70000FE
:10052000003100500033005005200007018A0422EA
:1005300011430182018A0222114301820189402272
:1005400011430181054A01211160418A0122890874
:100550008900D203114341827047000080E200E02D
:1005600070B505460C461646012D02D00C2D28D13B
:100570000FE006222349244806F0CCFC002820D0B6
:1005800006222149304606F0CBFC062020700020D0
:1005900070BD1E4D29680878C00610D52078202827
:1005A00003D200202070042070BD0A7E3A3130460C
:1005B00006F0B6FC2868007E2070002070BD012087
:1005C00070BD32462146284606F0B0FC70BD70B5BD
:1005D0000F481049C405228880252A4322800E4BEB
:1005E0005A89120702D4401E421CF9D10B4A01203D
:1005F00010600622044806F093FC2088A84320805F
:1006000070BD0000383E0300088A0020C0060800C4
:10061000A0860100D47F040020000050008000402C
:1006200008B5002802D0042006F0C6FB012006F021
:100630001EFC042006F0D9FB684606F008FC08BD45
:1006400010B5402006F086FBBE490870002803D094
:100650000120FFF7E5FF10BDFEE7F8B5B948448873
:10066000A1040D0C8580B849204606F065FCB74E04
:1006700030707D270846FF00394606F05DFC70703B
:100680003946204606F058FC0846642106F054FC22
:10069000B0706421204606F04FFC08460A2106F09F
:1006A0004BFCF0700A21204606F046FC3171A84C44
:1006B00000202070A749284606F03EFC60700846DE
:1006C000A14906F039FCA0709F49284606F034FC89
:1006D0000846394606F030FCE0703946284606F0F8
:1006E0002BFC0846642106F027FC2071F8BD84B07D
:1006F0000024029400F070FA00231A4602211D2003
:1007000002F0E6F802A806F017FB6846007A4328D4
:1007100000D0FEE7402006F036FB012800D0FEE7BF
:10072000FFF78EFF802006F079FB8B4805273F07F7
:1007300003908A4EC82535803889000607D5E8061B
:10074000006B000403D406F0FDFBC0071AD00020A4
:10075000002811D0042006F0FBFB044606F0FEFB47
:10076000002C09D000200190042101A806F0FCFB18
:10077000002801D000F085F972B602F020FF0428AD
:1007800002D006E00120E3E775480078012807D091
:100790000320022806D0032804D0012879D096E04F
:1007A0000220F6E70190398A042211433982044677
:1007B0000398C069012814D9032C10D106F0DAFB84
:1007C00000280CD006F0DCFB002808D0032006F03F
:1007D000DDFB002803D06349022008700DE00224ED
:1007E0000BE0032C08D1032006F0D0FB002803D037
:1007F0005C490120087000E002240194022C01D021
:10080000032C26D158490869042210430861788ACC
:10081000202188437882388A022108433882022CBA
:100820001FD0788A904378827F2080013A88802187
:100830000A433A800022521CD2B20A2AFBD37A8A97
:1008400010231A437A82494A401E506138888843EF
:100850003880474900230B70022C0AD0032C08D0A3
:1008600027E0788A10437882788A1021884378823A
:10087000EFE740484188FF220132914341807A8866
:100880003D490A8041880122114341801946009365
:1008900003E01BE00098401C009000981428F9DB4E
:1008A000788980088000401C788178894006FCD5D2
:1008B0007980B88A800602D530490820088030BF88
:1008C0002948026904218A43026100E030BF62B610
:1008D0002B48017800290DD00021017029480078AB
:1008E000002807D13580284806F0DAFA154827494C
:1008F000807848702648007805F0D4FE254C207892
:1009000000280BD035802448992101700022012154
:1009100002F0EBF902F0DBF9002020701F4C207888
:1009200000280BD035801C48EE21017000220121E7
:1009300002F0DBF902F0CBF900202070358006F0E0
:100940007EF9F6E60080002010270000A37E00203C
:10095000A87E0020A0860100E001002000310050A8
:1009600054020800C406080000ED00E000800040CA
:100970007D8A0020200000507E8A00200033005035
:10098000DB880020DD88002002800020F088002025
:10099000DE880020D8880020247E0020D98800200E
:1009A0007047000027480178002902D0802141705B
:1009B00070472549002008702449C87070472148B5
:1009C0000178002902D08121417070471E49012021
:1009D00008701E49C87070471A480178002902D073
:1009E0008221417070471849022008701749012080
:1009F000C8707047002804D0012803D0022802D113
:100A0000EAE7CFE7DBE770470E48C0787047002081
:100A1000EFF31081012282F3108805221207128958
:100A2000120605D40A48028901231A4302810120D3
:100A3000002903D0012181F310887047002181F340
:100A4000108870470F8A002054020800C60608006C
:100A500000330050C04900204860704710B5BF48BF
:100A600006F09AFA10BD70B5BD4D6888C006040F37
:100A700006F098FA69881E2291436200114369804A
:100A800070BD70B50121B748C163C16B0029FCD1AD
:100A900001208007C069B44900220B68984200D247
:100AA0000A60AD4C01266378B04D002B0DD062700A
:100AB000086006F07DFA2880012006F07FFA06F033
:100AC00083FA002800D1667070BD0A681923821A63
:100AD000DB019A42F8D3086006F06AFA2988884256
:100AE00002D9411A89B201E0091A89B21829EBD357
:100AF0002880012006F062FA06F066FA0028E3D1A9
:100B0000667070BD08B506F065FA0090009808BDE3
:100B100008B506F065FA0090009808BD9448406951
:100B2000C007C00F002801D0002070470120704787
:100B300038B501248E4948694006C00F00280AD004
:100B400048698006C00F002805D000200861009089
:100B5000FF215F3104E000240CE0009A521C009257
:100B600000988842F9D3FFF7D9FF002802D106F098
:100B70003DFA0024204638BD00B585B0684601F036
:100B800063FC009806F038FA05B000BD0020794BF0
:100B9000197800290DD001227249CA63CA6B002A54
:100BA000FCD101218907C969734A1268914201D2B7
:100BB000012070470021197070470020704710B560
:100BC0006E4900200860FFF749FF01208007016B94
:100BD00049004908016310BDF8B566480126067052
:100BE0006749C8200880002048806648082444805F
:100BF00006F008FA01F0ADF90D206101800106F060
:100C000007FAFFF7E4FC05F0B9F9012006F0F4F962
:100C100002F06AF9052212071089302188431081F9
:100C20001089802318431081108980088000401C9F
:100C30001081108920431081494D2888184328804D
:100C4000508AA04350821089402738431081108A6F
:100C5000042188431082908A8007FCD5FFF7FAFEB2
:100C6000288801210843288068898105464803D5E2
:100C700029880143298002E0298881432980288826
:100C8000782188432830288029880620014329803C
:100C9000508A2043508228889843288005221207D2
:100CA00010893946884310816889800502D5374A02
:100CB000052090800126B6073268B0158243326065
:100CC000334802683F277F02BA434714D2190260B3
:100CD000026807033A43026004272E48102202608C
:100CE0000360920102600160510001600221016015
:100CF00007600027012101602748006806F08EF98F
:100D000000F0A7F800F0EEFF00F0DDF901F093F835
:100D10003068B11508433060FFF72EFFFFF742FE41
:100D200003F0DBFE05F092F9FFF749FF052000070D
:100D3000C7826888E0218843A0306880012006F0DF
:100D400073F90F49C82008800E484480F8BD10B5DB
:100D500006F070F910BD0000148A0020E2040000C3
:100D600020000050C00000407C0408007804080007
:100D7000001000500E8A0020287E00208C030800FE
:100D8000003100500033005000100000800000507F
:100D90000002004080E200E004900020F0B583B043
:100DA0001E46804D0F46029201900024294601986C
:100DB00006F046F90546280005D033463946029A22
:100DC0000198A8470446204603B0F0BDFFB581B0A6
:100DD0000D466E782C78002006F038F904282AD0C9
:100DE000002828D0701EC0B2002E24D06E4B2E21B9
:100DF0009A6E614351188A881607360F072E12D251
:100E000037007F443F79FF19BF440303030D030DEF
:100E100003009604B60E062E05D26E78012E12D06F
:100E2000072632438A80641C6407640F0146401E13
:100E3000C0B20029DBD12946049B039A019806F031
:100E40000BF905B0F0BD204606F00CF9002005B006
:100E5000F0BD70B4554D2C1D2A780020002A0AD907
:100E6000534BC100665C002E01D149198B60401CB8
:100E7000C0B29042F5D370BC7047028908894D49D1
:100E8000101A80B2884201D90120704700207047B3
:100E900010B504460021442006F0EAF84649A200B5
:100EA0008850442106F0EAF820020E30012106F0B5
:100EB000EBF810BDFFB581B00446A67830020E30C5
:100EC000009006F0C3F8002801D0FF2647E0304626
:100ED000FFF7DEFF384FB5007959029888807959BD
:100EE0006088C880785922792030417CD20749082F
:100EF0004900D20F11434174785906223B30A11D9D
:100F000006F00EF878596179403041707859062220
:100F10003430039906F004F8795904982031887622
:100F200002980D281BD0254810230088009A81B212
:100F3000234806F0AFF86188018061794172E18849
:100F40004181218981816189C181A1894180E189B2
:100F50008180218AC180A17C017206F0A1F830460F
:100F600005B0F0BD81692039897F082904D2154A6E
:100F70008900515881617047FEE7134A13480021E8
:100F800008CA08C0491C1029FADB01201049C00614
:100F900008601049CA691202120ACA610E49086043
:100FA0007047000084430300D802080004060800CC
:100FB00044770020307500005405080060010020CF
:100FC000013800005477002074770020108400401E
:100FD00080E100E000ED00E000E100E070B51646C1
:100FE0000D46104606F032F800286AD0340A304622
:100FF00006F02CF8012812D0A87A1E2811D0294614
:101000000A310E2846D019DC801E030006F04EF887
:101010000B255929592D59315939593E590002206A
:1010200070BD3146314806F047F80021204606F0F1
:1010300049F80221304606F027F842E018283DD052
:1010400006DC102819D012282CD0162839D131E00E
:10105000522823D0D22834D128E0204606F038F890
:101060002FE0204606F03AF82BE0204606F03CF848
:1010700027E0204606F03EF823E0204606F040F840
:101080001FE01B4A2046126890471AE0204606F0EF
:101090003DF816E0204606F03FF812E0204606F044
:1010A00041F80EE0204606F043F80AE0204606F03C
:1010B00045F806E0204606F047F802E0204606F034
:1010C00049F8002070BD70B50A480378021D002160
:1010D000094D07E0CC00165D0A2E01D12418A56049
:1010E000491CC9B29942F5D370BD00000128000027
:1010F000287700200406080014780020F7B507467A
:101100001646019806F02CF80546C488384606F0C5
:101110002DF8401E844200D2204684B222460B2184
:10112000384606F029F80746002E05D033460A2136
:10113000019A06F027F8FEBD29467C802246083138
:10114000381D05F0EDFE384606F022F8FEBDF8B574
:101150000646002000900C464A8801466B46304601
:1011600006F01CF8020001D061881EE0608806F0DD
:101170001BF8002817D005890120EAB2002106F0EB
:1011800019F80C4B0CCB1040194008430BD032021D
:101190000223294608480A3205F07CFF6188018055
:1011A00005F07EFF04E0618800223046FFF7A6FFCD
:1011B0000020F8BD308A002002280000F8B50D4656
:1011C000064681002B48EA884458521C20686B89E7
:1011D000018F294F51430091014640314A89C98905
:1011E000511A8AB2991A89B2B94214D29A4212D0CB
:1011F000294605F0E5FF2D892049009805F09CFE61
:101200002818801C4034E0823002401C80B2042147
:1012100005F03AFFF8BD2821304605F0D7FFF8BDAC
:10122000F8B50546870013480C46C059C9880068C0
:10123000114E024640325389D2899A1A92B28B1AC1
:101240009BB2B34211D20B4E8A420ED005F0C4FFBE
:10125000F05905225F30611C05F062FE2802401C37
:1012600080B2052105F010FFF8BD2821284605F0C1
:10127000ADFFF8BD4C030800FF7F00001027000001
:1012800070B50446007800250D2801D00A2200E040
:1012900002225A494B7A002B06D00D2804D0637CD9
:1012A000032B01D0432551E0097A8A4339D10D2817
:1012B00009D00E2802D00F2803D134E0607C032827
:1012C00004D3402542E0607C0328FAD8A07C04289F
:1012D000F7D20A2908D0607C012822D0022820D029
:1012E0006078032809D811E005F07CFF012806D1B9
:1012F0006078032803D0002801D0492526E005F0B6
:1013000071FF002802D160780228F6D83020035DF2
:1013100022462046E17C3132143000F019F80546AF
:1013200014E0422512E005F05DFF012807D1607846
:10133000052804D1A01D05F05BFF0028DDD005F0D5
:1013400051FF002802D160780228D6D8284670BD07
:10135000FFB5002086B001216A4611700446059150
:101360000021002C06D0089D099A1F239A4234D9E7
:10137000402032E01C23069D079AF7E76B185E7841
:10138000330005F093FE1D261010101010101010E1
:10139000102626262626262626262626262610102F
:1013A000101010102600059B03E06F46FF5CB7424B
:1013B00004D05B1E5BB2002BF7DA03E0002B01DBED
:1013C0004A2006E0059B6F46FE54059B5B1CDBB282
:1013D00005936B5C491C5918C9B2914201D200288F
:1013E000CCD0914202D04A200AB0F0BD641CE4B2D5
:1013F000022CF9D20028B3D0F6E7000098050800C7
:1014000070B5EFF31085012080F310882C4805F0AB
:10141000F5FE0446002D1DD0012080F31088002C1D
:101420002DD020464038C08F2649884227D1618977
:10143000208905F0E9FE05000ED021461031A38970
:1014400062892089A847002806D0012817D00228E1
:1014500015D105E00020E0E7204605F0DBFE0EE0B8
:10146000EFF31085012080F31088154821460C30D9
:1014700005F0D6FE002D0CD0012080F31088EFF38C
:101480001084012080F310880D480068002802D0E5
:1014900004E00020F1E7012005F0C8FE002C03D095
:1014A000012080F3108870BD0020FAE710B5BC2140
:1014B000054805F0E3FD0549012005F0BDFE10BD1E
:1014C000A805080038830000040608000114002065
:1014D00000B502790021130005F0E8FD0C34070780
:1014E000353520353535353527344279042A27D826
:1014F000C279530707D05207520F012A03D0042A9A
:1015000001D0052A1CD18279002A01D0012A17D1E5
:10151000007AC01F0A2816D3062114E04279521E11
:101520000A2A10D3082242710DE0407942070AD0FE
:101530004007400F012806D0042804D0052802D017
:101540000A2100E00721084600BDF3B581B00198EB
:101550000C460102CA1D022332480E3105F09AFDE5
:1015600004700199054602272F488E00002C06D0F2
:10157000042C16D0062C10D0072C3FD108E081593E
:1015800005224968897C114069708059C77335E02C
:10159000084605F057FE687030E080590F21C1738E
:1015A0002CE0044680594068417C012902D1007E2C
:1015B00001280FD0019805F04BFE01210028A05909
:1015C0000BD04268D07D00281CD001281AD00428F6
:1015D0000DD00FE0002068700DE04068C27D022A47
:1015E00001D0042A06D1007C02280BD102E0107C35
:1015F000022807D06F70A1590320C873284605F050
:101600004FFDFEBD6970F6E701460A780120042A05
:1016100001D90020704749780029FBD00129F8D171
:1016200070470000021C000028050800FFB589B0C3
:101630000D4600206946059008720B98000A00903C
:1016400005F006FE07460B9805F000FD00287DD04A
:101650000B982978000A8400784E012963D0042968
:1016600004D0062948D0072968D125E03059C17B2C
:10167000032901D0042961D1697800291AD0406872
:101680001022A91C05F04CFC002F06D03159C87B54
:10169000032807D0042808D050E03059C07B032825
:1016A00003D04BE00B20C87348E00521009805F0FB
:1016B000D5FD43E00120B6E03059C07B0E283DD176
:1016C000009805F0BFFD002103E02A18401C91702E
:1016D000C0B21028F9D3688A69460883294606A84B
:1016E00008221431023005F01BFC06ABAA1C394657
:1016F000009805F0B9FD21E03059C07B0F281DD1BD
:10170000AA1C0A21009805F0B5FD002F04D0394627
:10171000009805F0B5FD11E000231A4639460098FF
:1017200005F0B4FD0AE0012F08D10B9805F08EFCFE
:1017300001281CD0002801D0022005906846007ABC
:10174000002811D002AA0521009800E00CE005F065
:1017500091FD6846027A60200243684602720123C6
:101760003946009805F092FD05980DB0F0BD30594E
:10177000C07B0228E2D16878002851D002210B9862
:1017800005F082FC305907224068A91C173005F08B
:10179000C7FBE878002804D130594068407C012814
:1017A0003AD0009805F078FD002837D0297A0098C3
:1017B00005F078FD002833D0009805F079FD01216F
:1017C000009805F07BFD00282CD030594068417E00
:1017D00000292BD0042929D0C17E027D1140C17679
:1017E00030594068017F427D114001776846007A98
:1017F0000028A7D13059022142680098173205F01D
:1018000039FD305941684031897B002913D00421CA
:101810000098FFF79AFE91E7022004E0062002E01C
:10182000082000E00320694608728BE70021C1769A
:1018300030594068D9E70B21C1737FE728050800BC
:10184000F8B50546FD49123080B2496E2A22504350
:101850000C1804202071241D05F036FD0090204650
:10186000093004226946064605F05AFB05F02CFDB6
:10187000009004226946601C05F052FB05F024FD2F
:10188000009004226946601D05F04AFBEC4A294697
:10189000964600204E22EB4BB4465143420066462A
:1018A0009619727836781202324376463668871C6B
:1018B00076187F00FF18F253401C0228EEDBE24945
:1018C000A80008580822611C783005F029FB28027E
:1018D000401C80B20D2105F0D7FB0D21284605F0F4
:1018E000F9FCF8BDF3B5044681B0042005F0F8FC1E
:1018F0000246D549A0000858002A25D0029908229E
:1019000070300B3105F00CFB0299204613318C46E8
:101910000022CB4B4E21CB4E4843550061466F18F9
:1019200079783F78090239431F683F18AD19795318
:10193000521C022AF1DB20460299FFF781FF204664
:10194000029905F0D3FCFEBD6030C17B490704D588
:101950000621204605F0D0FCFEBD2102491C807BFB
:101960008DB2002807D07D2252012946B74805F0E4
:10197000C9FC032100E00121284605F085FB062172
:10198000204605F0C5FCFEBDFFB581B00398070AEF
:1019900005F05CFB0646102836D004DC002E37D05C
:1019A000082E04D130E0142E32D0152E0BD0A64CC8
:1019B000BD0060596030C07BC00607D53D21384668
:1019C00005F004FC24E0022005B0F0BD05F0A6FC03
:1019D00001281DD1032E07D19C48039905F06CFB0B
:1019E0006059012160308173605918226030C17BD9
:1019F0001143C17360598030007C002804D0072156
:101A0000039805F041FBDEE738460299FFF76AFFCD
:101A10000020D9E710B50C4605F086FC21888A0025
:101A2000894989580968002902D0894BC9689950A9
:101A300010BDF8B50E461046150A05F007FBAC00C0
:101A4000814F002817D0142815D0152809D03859EF
:101A50006030C07BC00606D53D21284605F0B6FBA8
:101A600009E0022008E005F059FC012803D13146C5
:101A70002846FFF7A3FB002039590968002902D046
:101A8000734AC9681151F8BDFFB50F461546110AD2
:101A90006D4A8800125881B012681E46002A01D093
:101AA000D46803E06A4A002314581350002C18D05D
:101AB000201F4288674B9A4213D10088602810D1BA
:101AC0002046403002898A420BD18088002808D005
:101AD000A068002802D0204605F02CFC204605F026
:101AE0002FFC33462A463946019805F02FFC6BE758
:101AF000F8B5160A544CB5006059174600281CD09A
:101B00004030017E104605F0BFFA384605F09EFAD7
:101B1000012802D006280FD108E061596031C87B46
:101B2000020709D5F7221040C87305E060598030DC
:101B3000417C304605F04AFB0020F8BDF0B5064672
:101B4000050285B0681C009080B2014602903F48B3
:101B500005F0B2FA0121029805F096FA05F0DEFBD5
:101B6000394CB7000128E05903D06030C17BE7222F
:101B700014E06030807B002809D07D225201334878
:101B8000029905F0BFFB0321029805F07DFA30466B
:101B900005F0E2FBE0596030C17BEF221140C173D8
:101BA000E0596030C17B4A0711D5FB221140C17357
:101BB0000098ED1D82B225480024A9B204230D38F7
:101BC00005F068FA4680047005F06AFAFCE6002227
:101BD0000121304605F0C6FBF6E610B51046140AA2
:101BE00005F034FA0B280CD01749A00008586030D3
:101BF000C07BC00603D53D21204605F0E7FA002052
:101C000010BD2046FFF79AFFF9E770B510460D4664
:101C1000140A05F01BFA002828D0142826D015280D
:101C20001AD00949A00008586030C07BC00615D5FD
:101C30003D21204605F0CAFA18E00000D80208004D
:101C4000E0010020300008004C03080024040000DC
:101C5000388A002038830000022070BD05F05EFB4A
:101C6000012803D129462046FFF7DAFA002070BD8B
:101C7000F8B507461D460E461446104605F0E6F92F
:101C8000142806D02B4622463146384605F070FB14
:101C9000F8BD0020F8BDF8B507461D460E461446AF
:101CA000104605F0D3F9142806D02B4622463146BB
:101CB000384605F063FBF8BD0020F8BDFEB5124DB7
:101CC000019117461E4600240090294605F0B8F9F8
:101CD000050005D033463A4601990098A8470446C6
:101CE0002046FEBD70B509480378021D0021084D4D
:101CF00007E0CC00165D012E01D12418A560491C17
:101D0000C9B29942F5D370BD8C41030004060800A6
:101D100034790020FEB5514D019117461E4600242E
:101D20000090294605F08CF9050005D033463A4667
:101D300001990098A84704462046FEBD70B50646A6
:101D400014460D46104605F081F9240A002836D0C5
:101D50004348301806D001281FD00C2821D00E2867
:101D600027D11AE02878002829D03E4DA600A8598E
:101D7000428E002A23D041230121204605F004FB96
:101D8000A95900204886A8590068002817D12002C8
:101D900001210E3005F078F911E02878002808D1EB
:101DA0000DE0204605F0F6FA0A2808D12878002828
:101DB00001D0412100E00021204605F0F1FA002089
:101DC00070BDF8B515460C46104605F03FF92F0AD0
:101DD00000282CD0234DBE00A859408E0D280BD0D2
:101DE0002148A2780088217983B2384605F0DEFACE
:101DF000A859408E00280CD02078002819D0412303
:101E0000A8590121428E384605F0BEFAA959002092
:101E10004886384605F0BEFA012803D046213846E8
:101E200005F0BEFA22796188384605F0C5FA00202F
:101E3000F8BD0023E4E7F0B50D480E23021D0B4C5E
:101E40000578002107E0CE00975D9F4201D136184A
:101E5000B460491CC9B2A942F5D3F0BD28490300BA
:101E6000F4FBFFFF540508006001002064790020A6
:101E700004060800F3B50546204980000C582802E6
:101E8000401C87B281B00026384605F0DFF81528DF
:101E900007D19520005D002803D005F03FFA002807
:101EA00018D023464033988AD98A884200D80846F9
:101EB0004004020C99823946114805F023FA0121A9
:101EC00094200155384605F0DFF88034607D002805
:101ED00005D101E01F26F8E7A07D00280CD00020E6
:101EE0006075A075022005F0FBF9002804D0294692
:101EF0003046029A05F066FAFEBD00004C03080069
:101F000023040000052000070188302211430180CE
:101F100001880322114301807047052000070188D2
:101F2000302291430180018889088900018070472F
:101F300000280BD0411E4840C003000C002100289F
:101F400005D04008491C0028FBD100E0102188B2D0
:101F50007047704710B4032800D10420724C400130
:101F60000019490008181A43C28010BC70470328A2
:101F700000D104206C4A4001801801228A408280EE
:101F80007047032800D10420674A400180180122CD
:101F90008A4042807047F0B5059C05460E461746BC
:101FA000002C04D031462846FFF7EBFF03E0314612
:101FB0002846FFF7DCFF3A4631462846FFF7CAFFBE
:101FC000F0BD032800D10420574A40018018008842
:101FD00001228A40104000D001207047FFB583B035
:101FE0000D9F144651A00068019020461338FF252C
:101FF000013585400290A8B2FFF79AFF002F01D06B
:10200000012100E000214A4E8140B089A8430143EC
:10201000B1813F20FFF78CFF8740B08980098001A4
:102020000743B781A8B2FFF783FF0C998140308A3C
:10203000A84301433182012502992846884007467A
:1020400080B2FFF775FF06998140308AB84301439B
:1020500031823F20FFF76CFF039901AA525C04997B
:10206000511881400298400080190288920992011B
:1020700011430180A007C20EFF20904080219140B3
:10208000002C0BDA2207120F083A9308294A9B000A
:102090009A18D36983430B43D36107E0A308264A08
:1020A0009B009A18136883430B431360E006C00E2D
:1020B00085402248056007B0F0BD70B50125133892
:1020C0002C468440A0B2FFF733FF85401848C189F1
:1020D000A1430D43C58170BD1338042802D8184AA6
:1020E00080001150704770B505462C46133C042CF7
:1020F00008D82846FFF7E1FF1149A0000958002938
:1021000001D0884770BDE906C90E012088400D49FD
:10211000086070BD1320E6E71420E4E71520E2E72D
:102120001620E0E71720DEE70030005001090F1904
:102130000014005000ED00E000E400E000E100E0E9
:102140000880002080E200E010B5FFF7E6FE0522DF
:10215000120790881749C30B164818D0164C2388CD
:102160005B0714D50078800710D520880222104321
:10217000208020884008400020804B68002B05D03C
:10218000A05E0421615E0A22A25E984710BD92887B
:10219000D206FBD50078C007F8D00848012282801B
:1021A000028880239A43028088680028EED0804706
:1021B00010BD0000508A00200002005000010050B5
:1021C00010B52649884201D9632010BD2449411821
:1021D00078290CD863210901401A0004792105F0FF
:1021E000F7F84821484300141C30C0B210BD1D4907
:1021F0004118DF290CD855210901401A0004E021BB
:1022000005F0E6F8182148430014001DC0B210BDC7
:1022100015494118DF2909D847210901401A00044E
:10222000E02105F0D5F88002000E10BD002010BDA1
:1022300070B5044600F07AF8002000F055F880B23E
:10224000012C06D0022C02D0032C00D000252846F9
:1022500070BDFFF7B5FF0546F9E70000A9060000CD
:10226000CFF9FFFFAFFAFFFF8FFBFFFF084301210C
:10227000890303460B433F490B803F4B18430880BB
:10228000092002434A8070473A4A11880F239B0174
:1022900000079943800D01431180704735490020A4
:1022A00008807047354833490A8802231A430A8058
:1022B000401E421C02D00A889207F9D400200881EF
:1022C00048897047401E411C0DD000BF00BF00BFB1
:1022D00000BF00BF00BF00BF00BF00BF00BF00BF06
:1022E000401E411CF1D1704730B5022251024D0011
:1022F0002846FFF7BBFF1420FFF7E4FF0720FFF796
:10230000C3FFFFF7CFFF04460120FFF7DBFF0222E8
:1023100000212846FFF7AAFF0720FFF7B5FFFFF7C8
:10232000C1FF0219FFF7BAFF104630BDF0B5114CDE
:10233000134820801420FFF7C5FF01256D02A580FA
:10234000E5802088E9000843208020888F10B8436A
:102350002080FFF7A7FF461B208838432080FFF727
:10236000A1FF401B7100691A4000281AA180E0807B
:10237000F0BD00000015005001400000A0860100E3
:102380000148000008B589210520000701810121CD
:102390006B4A490311800188802211430180018822
:1023A0008908890001806748018A0222114301825D
:1023B00000F0C9FD05F012F805F016F800200090B5
:1023C00003E069460888401C009068460088912810
:1023D000F7D308BD81B05C480021018041805C4A90
:1023E0005A4BD380FF23D2331381C180C320508046
:1023F000584A08201080009103E06A461088401C6B
:102400000090684600889128F7D3009103E06A465F
:102410001088401C0090684600889128F7D30091EE
:1024200003E069460888401C0090684600889128AF
:10243000F7D301B07047484A508091800120108046
:10244000D088C007FCD17047F1B5FFB0FFB08EB0A7
:1024500002ADA81C01903B48008AFFA9C862FFF7A3
:1024600091FF39480288FFA98A6242884A62384B44
:10247000DA880A621A89CA61C2888A61408B486117
:102480003648408808615888C860FFF7A3FF0023DA
:1024900000242F46FF213846FFF7CDFF0021002200
:1024A0000020019E3D5C365CED07ED0FF607F60F50
:1024B00075400E46491CB5401543C9B2EAB2082919
:1024C00007D11946FFAD6D6B5B1C9BB26A540021AE
:1024D0000022234EC8253580103080B2FF25AD0084
:1024E000A842DED9641CA4B2022CD3D3FFAA15499A
:1024F000D06A08821749002008801348916A018039
:10250000516A41801249126ACA80FFAAD2690A81BF
:10251000FFAA9269C280FFAA52694283FFAA10698A
:102520000E4A5080FFAAD068488005200007018825
:102530008022914301807FB07FB00FB0F0BD0000DA
:1025400000020040E0300050002400508080000075
:102550006028005020200050003500500026005018
:10256000003100507D4A9060D160704710B5012065
:1025700000F062F90520000200F09AF9C0B210BD27
:1025800070B50024764DFFF7F1FFC00705D0641C3D
:10259000AC42F8D30020C04370BD002070BD70B5C0
:1025A000FFF7EEFF002815D100F046F900256C4E2C
:1025B000062000F07DF90024FFF7D8FFC10703D102
:1025C000800701D5002070BD641CB442F4D36D1C9B
:1025D000322DEDD30020C04370BD70B505460C46CA
:1025E0005E4811198068814201D9061B00E0164639
:1025F000FFF7C6FF00281BD1022000F01DF900F0F4
:10260000B1F8032120460906084300F039F90020FB
:1026100000F012F90024300007D0002000F030F95B
:1026200028706D1C641CB442F7D300F0A6F8304645
:1026300070BD70B505460E4614464848C0688442D1
:1026400000D984B2FFF79CFF00281FD1FFF7A7FF36
:1026500000281BD1022000F0EFF800F083F80121E0
:1026600030464906084300F00BF9002000F0E4F87A
:10267000002C07D028786D1C00F002F9641EA4B26B
:10268000002CF7D100F079F8FFF77AFF70BD70B534
:1026900005460C46FFF783FF002802D00020C04308
:1026A00070BD022000F0C8F82006284300F000F9B1
:1026B000FFF766FF70BD10B50024FFF761FF00282B
:1026C00011D1012000F0B8F800F04CF80920000307
:1026D00000F0D6F8002000F0D3F8002000F0D0F889
:1026E00084B200F04AF820B210BDF7B582B00E46B1
:1026F00015460196194F0198F9680C4604F01CFC28
:10270000401C6043441E002000F096F8B868801B0F
:10271000A84200D205462E460027002D1BD901985D
:102720008019A04202D90198261A761C0298B2B2EA
:10273000C0190199FFF77DFF002803D00020C04396
:1027400005B0F0BDBF19601C01900448C068241892
:10275000EE1BAF42E3D3384605B0F0BD1C8000202D
:1027600080841E0010B5584841780078FFF7FFFBC1
:1027700002210020FFF705FC10BD10B5524841783A
:102780000078FFF7FEFB10BD10B502210020FFF717
:10279000EEFB4D4841780078FFF7F3FB10BD10B514
:1027A00002210020FFF7EDFB10BDFFB581B00C9EAC
:1027B0000B9D0A9C0F46444902780A704078487085
:1027C000FFF7DBFF0520000781880122D2021143B9
:1027D00081803E4801884908490001800188FF2224
:1027E00081329143FA0111430180018840229143D3
:1027F000039A920111430180018804229143049AB3
:10280000920011430180018802229143620011432A
:1028100001800188012292039143AA0311430180A0
:10282000018818229143F20011430180018801229E
:102830001143018005B0F0BD24490A8852085200B6
:102840000A800A88FF2381339A43C00102430A8029
:102850000888012210430880704710B51B48018882
:102860004908490001800520000781880122D20221
:1028700091438180144841780078FFF782FB10BDB6
:1028800010B4002211490B88DB059B0F012B01D9E5
:10289000040C8C80488008888004FCD50120C88006
:1028A000012B01D9888802044888801810BC704721
:1028B00010B50446FFF756FF2046FFF7E1FF044638
:1028C000FFF75BFF204610BD2C8000200012005057
:1028D000F0B4C64E337005231B079C8820252C437B
:1028E0009C80C34F0023BB81C24B61241C801C8889
:1028F0000625AC4349000C431C8019881024A143D1
:102900001201114319808105890D99800121B98136
:10291000398A8906FCD47070F0BC7047B449002035
:10292000888105200007818820229143818070479B
:10293000F0B40022AF4CAE48AF4DB04E0823238216
:10294000018A4907FCD5018A8906FCD42988B78AFF
:10295000C90706D0521CAA498A42F0D3F0BC012014
:102960007047F0BC0020704730B4A04D02042978B5
:10297000130EA04C012902D0022913D10EE09C496C
:1029800000228A81C2036D78D20F2A43A2800122DD
:102990008A810A8A9206FCD4238203E00102090E8E
:1029A00021822382C0B2208230BC704770B50646B7
:1029B0000C46FFF7BDFF002801D0012070BDEFF3EA
:1029C0001085012080F310883046FFF7CDFFFF20EF
:1029D000884901300882002D10D0012080F3108832
:1029E0008348028B002AFCD0098A2170018A49079A
:1029F000FCD5018A8906FCD4002070BD002080F33C
:102A00001088EDE7F8B505461446EFF3108601206F
:102A100080F310880846FFF7A7FF0021754B744A22
:102A2000002C08D9FF270137108A8007FCD51F82A8
:102A3000491CA142F8D3002E18D0012080F3108841
:102A40000021002C0BD9108B0028FCD0188A2E688E
:102A500030702868401C2860491CA142F3D3108ABA
:102A60004007FCD5108A8006FCD4F8BD002080F316
:102A70001088E5E77FB50D46002A06D00120400406
:102A8000441B944205D21C6005E00020186004B08D
:102A900070BD14461A60FFF74BFF002802D00120DA
:102AA00004B070BD202C08D3202229466846FFF7C9
:102AB000A9FF2035203C202CF6D2002C04D0224641
:102AC00029466846FFF79EFF002004B070BD70B530
:102AD00006460D46FFF72CFF002801D0012070BDEF
:102AE000EFF31084012080F310883046FFF73CFF9D
:102AF00040480582002C0BD0012080F310883C4810
:102B0000018A4907FCD5018A8906FCD4002070BDE2
:102B1000002080F31088F2E7F8B505460F461E4600
:102B20000020306001204004874230D2FF21F8B2FB
:102B300001310C1AA24200D21446FFF7F9FE002818
:102B400001D00120F8BDEFF310800090012080F348
:102B500010883846FFF708FF264A2548018A89076A
:102B6000FCD5297811826D1C641EA4B23168491C01
:102B70003160002CF2D1009900290AD0012181F3A3
:102B80001088018A4907FCD5018A8906FCD40020F7
:102B9000F8BD002181F31088F3E7F8B507460E462B
:102BA0001D4600202860009001204004864201D389
:102BB0000220F8BD801B904200D20246144622003B
:102BC00012D02868A2B28119C0196B46FFF7A4FF82
:102BD000002801D00120F8BD28680099401828601D
:102BE0000098241A002CECD10020F8BD2E80002083
:102BF0006013005000130050801300504013005029
:102C0000400D030091480022C260026190498B8808
:102C10005B085B008B804169002902D04261012082
:102C20000847704730B48B4CA08B8007C00F00283A
:102C300010D0874B854A5068017819601168491E89
:102C40001160401C5060002906D0A08B8007C00F87
:102C50000028F0D130BC704700245460586802212D
:102C60008843586091680029F4D0946030BC0020FB
:102C7000084710B4764A93898024A343938107239D
:102C8000138101239380938923439381030A9380C3
:102C9000C0B2108091819089A04390816E49A001BB
:102CA00008606E4A1168FF231B02994303239B03AC
:102CB000194311606A4908606A4908606349002045
:102CC00008760861C8604860086010BC70476049B9
:102CD000A020086148698006C00F0028FAD0486922
:102CE0004006C00F0028F5D0704710B5574C216042
:102CF0006060A260FFF796FF6068002805D0544925
:102D00004868022290431043486010BD70B5504996
:102D100088680007000F012810D0022877D0042807
:102D20000DD00C280AD14948007E012806D14869F7
:102D30000006C00F002801D0FFF764FF70BD0888AF
:102D40004A4A494C1178605410780023205C0A28C4
:102D50000DD0107820182038C07F0D2807D01078AB
:102D6000401C107010785028E8D1137070BD207886
:102D70006C2832D03E49992807D0EE2820D0137015
:102D80005021394804F036FB70BD607801280FD01F
:102D90000228F9D11370A0788873E078C87320797D
:102DA00008746079487450212F4804F023FB70BDEB
:102DB0001370A078087050212B4804F01BFB70BDE5
:102DC00060780428FBD11370A0788874E078C87408
:102DD0005021254804F00EFB70BD607865282CD189
:102DE000A078642829D10020E178312904D0322943
:102DF0000ED0332917D020E01E49255C0D541370E6
:102E0000401CC0B2255C0D2DF7D10B5415E019E024
:102E10001949255C0D541370401CC0B2255C0D2D62
:102E2000F7D10B5409E01549255C0D541370401C73
:102E3000C0B2255C0D2DF7D10B5450210A4804F087
:102E4000D9FA70BDFFF7EEFE70BD00005C8A00206D
:102E5000001100506011005080E100E00CE400E03F
:102E600000E100E080E200E03180002030800020BE
:102E7000F08800208180002095800020A98000201B
:102E800030B4154B1C680825C907AC43090F0C4327
:102E90001C6019680424D207A143520F1143196022
:102EA00019680222C0079143800F014319600B4843
:102EB0000168C022090A09021143016030BC704751
:102EC000FF20074901300860704706480068002865
:102ED00000D00047704700000034005008E400E0D4
:102EE00000E100E0C080002030B48848884BC40571
:102EF000218880252943218086494A89120702D4E6
:102F0000401E421CF9D18449012008608349188879
:102F100008808349588808802088A843208030BCD6
:102F20007047002070477047704770470020704717
:102F300001218907086B0722104308637047704717
:102F400078480078704730B5784977480860784904
:102F50004C200880784C774B238279497748488009
:102F60007949784808807948488022204881812022
:102F700080000882764848827648088376484883ED
:102F8000774A764890804122764812018280764ABC
:102F9000C280764DC58102824282921C82826A1F63
:102FA000C282FF2246320283714A4283714A59200B
:102FB00010807248704D058043254580704D5582C4
:102FC000D5228280FF22D33202816E4A42816E4A2C
:102FD00082816F4A6D4810806F486E4A4280C28875
:102FE00010252A43C2806D4A02816E4D6C4A6A8068
:102FF0006382082242814A486B4A0088108247480F
:103000006A4A00881080FFF79BFF002801D030201B
:10301000088330BD4008704700B58BB00021644A7A
:103020004262644A8262644A4261644AC262644A99
:103030000260644A0262644A4260644AC2613A4879
:103040003A4A10606248026B03129A430263426B71
:103050001F231B049A4303231B04D21842635D48B9
:103060000368C21293430360026803139A43026029
:1030700068464154491CC9B22829FAD36946282216
:10308000554803F04DFFFFF75EFF03F091FF5349F2
:103090000880002003F092FF03F096FF0BB000BD04
:1030A00010B52148214908604948416B1F2212048C
:1030B0009143032212048918416300060168C9087C
:1030C000C900016005200007018989088900491CA1
:1030D000018101890822114301810E484189890536
:1030E00004D501887822914308310180FFF72BFF36
:1030F0003B48006F0078002803D03A4800882649F2
:10310000C880012003F090FF10BD0000A0860100E0
:10311000087F040020000050008000405602080094
:103120004A030800788A00204C05540780000040BC
:10313000602C00507F7F0000402C0050AC29000024
:10314000002200500909000000240050220900005C
:103150002204000030D0000033040000EE11000013
:1031600020240050002500502E0200003E020000E6
:1031700044200000402800500D95000060280050B9
:1031800002420000E4DC00001092000053780000CE
:10319000002A00508B100000002C00500395000006
:1031A0009DD50000202C0050002800500026005023
:1031B000232F0020272F00202D2F0020312F00202B
:1031C000292F00203F2F00202B2F0020153000201A
:1031D0004000004000020040200008007804080081
:1031E000E00100205204080010B50124A407A06BE0
:1031F000FDF78EFCD34903F09FFE27221201511ADE
:10320000002900D10121D04A50601160206B0821B3
:1032100088430843206310BDF0B484B0002200212D
:103220000291CA490B68002B76D0194640318C7C3C
:10323000002C71D0C64C012814D01B8D1B071B0F0E
:10324000C44D01262D6F5B00F6049B19EB5A9B0BB6
:1032500003936D462B7B002B5ED06B461B7B012BB3
:1032600006D010E0E36C0293BB4D0023AB700AE084
:103270000A894E256A43B94D236852199A5A120A8F
:10328000CB7CD31A02936B461B7A002B55D0B44AE1
:10329000127BB44B9E6E2E235343F5186F463B7A38
:1032A0005B1E1B061B0E02930CD0521C5207520FC2
:1032B0002E235343F5186F463B7A5B1E1B061B0EED
:1032C0000293F2D1AB785B065B0E03936D462B7BCA
:1032D0009B069B0E0193A3692E246243A24C1219F4
:1032E0009A5AD206D20F0092012807D09A4A00209B
:1032F000907068460078002815D110E06846007884
:10330000002803D168460079002805D0087D0028F0
:1033100002D191480121817004B0F0BC7047684629
:1033200000790028F8D0087D0028F5D1C87D082252
:103330001043C87504B0F0BC70470128FAD0002AC9
:1033400003D085488078002801D1002A06D1087D65
:10335000002803D1C87D08221043C8757E4900208B
:10336000887004B0F0BC704710B505200007418993
:10337000890708D041898908890041817B494A88A9
:10338000520852004A800189802211430181018A3A
:10339000042291430182818A8907FCD504F030F828
:1033A00001208007016901694907FCD510BDF8B506
:1033B000694EF08800282AD10120F08005273F07B8
:1033C0007889800720D0B88A400701D502F0D6FD61
:1033D000664D2888802108432880654CFF20608046
:1033E00004202080FEF78EFD7D21C900E088A288A0
:1033F000000480188842F9D905202080B0887880A0
:1034000028888021884328805A4910200860F8BD08
:1034100070B5FEF782FDFFF7A7FF4F4C0025E58052
:1034200055480189490849000181012080078169C7
:1034300004221143816103F0E9FF50491020012665
:10344000086003F0E9FF03F0EDFF2570474840896D
:10345000800510D5607800280DD166704848008836
:10346000C00708D10120FEF73FFF8B218900884269
:1034700001D90220607070BD10B537490120C870B5
:1034800003F0D6FF10BD10B503F0D8FFFFF7F4FF2F
:1034900031490120087010BD01208007008A000614
:1034A00000D5E9E7704710B50120FFF7B5FE03F03E
:1034B000CBFF10BD10B50124A407208A000718D542
:1034C0000220FFF7A9FE03F0C5FF20684000400876
:1034D0006100084320602068C00F0028FBD1294903
:1034E0000868C0B2002801D0012008601A490420F1
:1034F000087010BD70B5244800888506AD0E2348BD
:1035000044681348016F0878002802D1284603F068
:10351000A7FF1F480089C00506D5200604D5E0078F
:1035200002D0284603F0A2FF0B48210603D5E1078D
:1035300001D003210170210403D5E10501D5022149
:10354000017070BD71020000400000406C03080073
:10355000E0010020600100207A8A00204A00080073
:1035600038030800D80208000400080020000050BA
:103570000016005000E200E00033005080E200E05E
:1035800000150050C0000040002000500002004024
:10359000002C005010B5C002642103F0CDFC0028BF
:1035A00000D0401E10BD08B56749096803F0E8FF68
:1035B0006649096803F0C0FC0090009808BDF0B5AA
:1035C00083B00024624E706D02900025FDF71CFA56
:1035D000604F002802D13879022801D100200290E2
:1035E000FDF7D4FA00287DD103F046FF002879D0FA
:1035F0000124F878002875D005200007808AC007CC
:1036000001D004249CE003F09DFC00286AD15248BC
:103610008069002801D0706D0290029EB97802A8DE
:1036200003F030FF00285DD001208007406940068C
:1036300058D44848817802A803F096FC00287FD02F
:10364000002001900296FF212D310126B607306A35
:103650008842FCD300273F48817802A803F012FF7C
:1036600000280AD07069400607D43A48817802A839
:1036700003F07AFC002800D00127002F60D00298C8
:10368000002804D00199002901D0401E0290002199
:103690008320324A1278022A00D1B520304A1378AA
:1036A000012B00D1213011700F21F26B920A92028E
:1036B0000A43F263F16B2B4A800211400143F1632C
:1036C000F06B3721C002C00A89050843F063042467
:1036D0000298002801D0001D02900298FFF75AFFBF
:1036E0001C4900E02CE00979002900D0012103F0F9
:1036F000CFFE1D48C06A8047FDF75FFA00280AD058
:10370000052000070188302211430180018803222F
:10371000114301800125306B0004C00F0028FAD04E
:1037200012480168C905FCD5002D01D0FEF7F5FB54
:1037300003F0B4FE05200007018980229143018136
:10374000204603B0F0BD0000248A0020288A002013
:1037500060020020C6060800A80508005402080000
:103760007B8A0020FF03E0FF1C07080000020040E6
:1037700010B51221264803F03DFE26491C2003F017
:1037800093FE00211C2003F07FFC10BD30B40246E4
:103790000120002103241346CB40DB0704D04D0059
:1037A0006D1C2346AB401843491CC9B20929F2D30A
:1037B00030BC704702460020122901D98D20704785
:1037C000062A07D0072A09D0082AF8D10729F6D0F7
:1037D0008D2070470829FCD08D2070470629FCD227
:1037E0008D20704770B50546094C022321881C22A4
:1037F000094803F04FFC058003F052FCE0880021EB
:1038000003F058FE01211C2003F03EFC70BD0000B7
:10381000828A0020887A00200470000070B584B08D
:1038200014461E463B4D1C2068800888FFF7AEFFFB
:10383000039039480190394B132203A90094A81D25
:1038400003F03EFE0446002C08D1E888002103F076
:1038500031FE044601211C2003F016FC01231C222A
:1038600031462F4803F016FC047003F019FC0020C9
:1038700004B070BD70B50C4626490B80207808282E
:1038800015D8CA880831415C51188EB2822E0CD0EE
:103890006178FFF78FFF0546002D09D1761C61780E
:1038A000B0B2A21C03F012FE02E0822500E08125E6
:1038B000002D05D01B4B2946DA1C164800F036F8BF
:1038C000002070BD70B50C461D46208803F004FE34
:1038D000104A10711580FF2809D0A178D08803F014
:1038E000E9FD02211C2003F0CFFB002070BD0E4B30
:1038F00089219A1C074800F019F8F6E710B5054A27
:10390000180A1279904202D10888FFF76BFF002055
:1039100010BD0000828A0020747900208A8A00206D
:10392000017000000270000003700000F8B504464A
:103930000E4610461F4662882188062303F0AAFB24
:103940000546207903F0CEFD28802E716F80284631
:1039500003F0A6FBF8BD70B50D4614464288007909
:10396000042301020C313F4803F094FB002D01D0E9
:10397000132100E012210170448003F091FB70BD1F
:1039800038B520200090384C608800280FD0401CAB
:1039900080B26B460122002103F0AAFD6088002856
:1039A00007D0801C80B2402103F0A8FD38BD002064
:1039B000EEE70020F6E770B5FFF7E2FF00F020FC2D
:1039C000FFF7D6FE0024294D2878FF2815D01C20AB
:1039D000604340194069002808D020461C21641C1F
:1039E000484340194069E4B2804701E0641CE4B2F6
:1039F0001C206043285CFF28E9D170BDF7B50D4657
:103A00001C2003F023FB022805D1EAB21C230299F3
:103A1000009803F0CBFC362003F018FB022805D1F8
:103A2000EAB236230299009803F0C0FC00240F4E3E
:103A30003078FF2813D0009807022046641C1C2110
:103A40004843305C3B46E4B20343EAB20299009833
:103A500003F0ACFC1C206043305CFF28EDD103B0C8
:103A6000F0BD00000D300000F60408002C7D0020A1
:103A700010B50E21104803F0BDFC1049372003F0AB
:103A800013FD0121372003F0FFFA10BD70B5054684
:103A9000094C022362882188094803F0FBFA05805B
:103AA00003F0FEFAE088002103F004FD0021372036
:103AB00003F0EAFA70BD0000968A0020D87A002050
:103AC00009DC0000FFB583B00C46F84F7A80002176
:103AD0000020F74D2B78FF2B17D01C234343EE5CBF
:103AE00096420BD15B195B68002B04D01C21484324
:103AF0004019416809E0401CC0B201E0401CC0B25E
:103B00001C234343EB5CFF2BE7D100291ED000921E
:103B1000019122783E46B81D6368A16803F0D0FC8D
:103B20000546002D09D120783072F088002103F07D
:103B3000C1FC0021372003F0A7FA01233722DD481A
:103B4000069903F0A7FA057003F0AAFA002007B05F
:103B5000F0BD70B50C461D46208803F0BDFCD34A6D
:103B600010711580FF2809D0A178D08803F0A2FC3D
:103B70000221372003F088FA002070BDCE4BCF4AD7
:103B80008921CA48FFF7D2FEF6E7F0B589B00C46A6
:103B90000020059000900190029003900490C34D86
:103BA000180A2979884279D12088E988411A89B28E
:103BB000022946D1224608326188164603F086FC67
:103BC00062883146684603F0ABF9BD4EBD49707856
:103BD0000880BD4F30783870FCF73FFD68460078AC
:103BE00073280BD169464978742907D169468978C9
:103BF000652903D16946C978702902D0632821D08C
:103C000028E0B2486A46017830311170417830318D
:103C10005170817830319170C1783031D170007934
:103C200030301071E8880521801D80B203F04EFC11
:103C3000E8880021801D82B29C48FFF78CFE00209E
:103C40003870C5E169464978612903D169468978A8
:103C50006C2902D0682822D031E09D486A4601785C
:103C6000303111704178303151708178303191703C
:103C7000C1783031D170007930301071E888052179
:103C8000801D80B203F022FCE8880021801D82B2F2
:103C90008648FFF760FE0020387099E1A0E1694690
:103CA000497865290BD169468978612907D1694628
:103CB000C978722903D169460979742902D072281A
:103CC00026D02DE038786421064603F035F93030EF
:103CD0006A46107008460A2103F02EF930306A4611
:103CE00050700A21304603F027F930316A4691704E
:103CF000E8880321801D80B203F0E8FBE8880021FA
:103D0000801D82B26948FFF726FE002038705FE10F
:103D100069464978742903D169468978632903D0B3
:103D20002E27622821D028E06846C0783038B0714C
:103D3000684600793038F071684640793038307222
:103D400068468079303870726846C0793038B07013
:103D50006846007A3038F0706846407A3038307102
:103D60006846807A3038707132E1694649786C294A
:103D700003D169468978702902D0622849D050E081
:103D8000B07B6421089003F0D7F80A4630306946CA
:103D9000087010460A2103F0CFF8303069464870A9
:103DA0000A21089803F0C8F8084630306946887040
:103DB000CF70F07B3030087120204871307C642156
:103DC000079003F0B9F80A4630306946887110460A
:103DD0000A2103F0B1F830306946C8710A2107980A
:103DE00003F0AAF808463030694608724F72707CBA
:103DF00030308872E8886A46801D80B20B2103F05B
:103E000065FBE8880021801D82B22848FFF7A3FDEA
:103E1000DEE0694649786C2903D1694689786F29C3
:103E200002D0622856D05DE0B07C6421069003F099
:103E300083F8002915D030306A46107008460A21F0
:103E400003F07AF830306A4650700A21069803F081
:103E500073F830316A469170D770F07C3030107151
:103E600014E020206A46107008460A2103F064F826
:103E700030306A4650700A21069803F05DF8303100
:103E80006A469170D770F07C30301071E8886A46CD
:103E9000801D80B2052103F019FBE8880021801DF8
:103EA00082B20248FFF757FD92E00000968A002098
:103EB0002C7D002001DC000002DC00000ADC000098
:103EC000F08800200280002006800020A37E0020D1
:103ED000A87E0020694649786C2903D16946897813
:103EE000732902D06C2814D01FE030206946087076
:103EF0004F708870E8886A46801D80B2032103F005
:103F0000E5FAE8880021801D82B2A348FFF723FD6F
:103F10005EE069464978652907D169468978642950
:103F200003D16946C978312902D06C2812D01DE02E
:103F30009A4803F0E9FA81B2E888984A801D80B275
:103F400003F0C4FAE8880021801D82B29248FFF78E
:103F500002FD3DE069464978652907D169468978BF
:103F6000642903D16946C978322902D06C2812D05D
:103F70002EE08B4803F0C8FA81B2E888884A801D99
:103F800080B203F0A3FAE8880021801D82B2824843
:103F9000FFF7E1FC1CE068464078652818D16846C8
:103FA0008078642814D16846C078332810D17D48C1
:103FB00003F0AAFA81B2E8887A4A801D80B203F041
:103FC00085FAE8880021801D82B27348FFF7C3FCA0
:103FD000A079012804D121882879059A03F09AFA5A
:103FE000002009B0F0BD70B50C466B4E20783188CA
:103FF0007288122802D0132811D020E006236A48C4
:1040000003F048F8054670896880307903F06AFA51
:10401000288060782871284603F042F80FE00623D4
:10402000624803F037F80546B0896880307903F0BC
:1040300059FA288060782871284603F031F800206A
:1040400070BD70B50C46544D287903F04BFA2188A9
:10405000884207D1E8886188A21D401880B2A188F3
:1040600003F034FA002070BDF0B583B00C46002593
:10407000494F387903F036FA2188884223D1F888ED
:104080006188A21D401880B2A18803F01FFAF88849
:104090006188401880B2397A00F08AF802AA01A932
:1040A00003F03EFA02980088012801D08B250BE02E
:1040B000F8886188401882B200213748FFF74BFC2E
:1040C0006088788100E08125002D10D07A883988B9
:1040D0000623354802F0DEFF064660887080387996
:1040E00003F000FA30803571304602F0D9FF00202D
:1040F00003B0F0BDF0B583B00C460025264F3879EB
:1041000003F0F0F92188884223D1F8886188A21D44
:10411000401880B2A18803F0D9F9F8886188401866
:1041200080B2397A00F044F802AA01A903F0F8F944
:1041300002980088022801D08B250BE0F88861885E
:10414000401882B201211448FFF705FC6088B8814D
:1041500000E08125002D10D07A8839880623134885
:1041600002F098FF064660887080387903F0BAF94B
:1041700030803571304602F093FF002003B0F0BD6F
:1041800010B5054A180A1279904202D10888FFF743
:104190007DFC002010BD0000968A00208180002058
:1041A00095800020A980002005DC000007DC0000CD
:1041B000F0B587B00446204602F0F6FF05460E4EE5
:1041C0000E4F0FE002AA01A9204603F0AFF968469E
:1041D0000089B04202D1204607B0F0BDB84207D0F6
:1041E000641CA4B2A888A04202D8E888A042E9D200
:1041F000002007B0F0BD00000229000003280000E5
:1042000010B512480021018041808180C180104991
:10421000362003F049F90021362002F035FF10BDA9
:1042200070B50446094D0021E88803F043F9298858
:1042300004233622074802F02DFF048002F030FFED
:104240000121362002F020FF70BD0000A68A002068
:10425000AC7B002001D80000FFB589B00520C0026A
:104260000890C01C0790FA480690FA4C36206080EF
:104270000822002306219920009101903621A01DDB
:1042800003F05AF90546002D7ED1F348012500952B
:1042900001900222E08808AB114603F053F9E08850
:1042A000EE4A022103F012F904AE01960095E0886F
:1042B00007AB0222132103F045F905AF092001974E
:1042C0000090E088E64B1022042103F03BF9E5481A
:1042D0006B46197D4170597D817002461321188A01
:1042E00003F0F4F801960095E08807AB0222132151
:1042F00003F028F9092001970090E088DA4B10229A
:10430000042103F01FF9D9486B46197D4170597D8E
:10431000817002461321188A03F0D8F8019600959F
:10432000E08807AB0222132103F00CF901970095F6
:10433000E088CF4B1022042103F004F9CD486B46EE
:10434000197D4170597D817002461321188A03F04E
:10435000BDF801960095E08807AB0222132103F017
:10436000F1F8092001970090E088C34B1022022148
:1043700003F0E8F8C1486B46197D4170597D8170A2
:1043800002461321188A00E04CE003F09FF80196E2
:104390000095E08807AB0222132103F0D3F809202F
:1043A00001970090E088B64B1022142103F0CAF860
:1043B000B4486B46197D4170597D817002461321C6
:1043C000188A03F083F8B04D01960095E08807AB9A
:1043D0000222132103F0B6F801970095E088AB4B59
:1043E0001022012103F0AEF8A9486B46197D4170F7
:1043F000597D817002461321188A03F067F803A9DA
:104400000920019100900222E08806AB114603F0DA
:1044100099F80546E088002103F04CF80121362088
:1044200002F032FE012336229A480C9902F032FE45
:10443000057002F035FE00200DB0F0BD30B583B040
:104440000D46844C6A46E08802A90C3080B203F025
:1044500067F8E08801AA0D3080B202A903F060F885
:10446000E088AA1C0C3080B2012103F02FF80198DB
:104470000088002806D0E08800210C3082B2204657
:10448000FFF769FA002003B030BD10B571480A4645
:10449000C0880421801D80B203F018F8002010BDF0
:1044A00038B50C46002000906A4D2B80208803F020
:1044B00013F82871FF2817D0E8886A460D3080B2BB
:1044C000022103F003F8E8886A460C3080B201212B
:1044D00002F0FCFFA178E88802F0ECFF0221362010
:1044E00002F0D2FD002038BD1B23DB026A4A89217D
:1044F0005848FFF71BFAF5E7F8B50C468022554EF1
:10450000180A317988427CD1F18823462088083303
:104510008D1C0093A84228D101256188009A02F0E1
:10452000D5FFE07900281ED03188082336225B4869
:1045300002F0B0FD0746307902F0D4FF3880002049
:104540007860E07A01067960A07A0004014379601E
:10455000607A000201437960207A01437960BD707E
:10456000384602F09DFD0022A8E00B1D984228D19C
:1045700002276188009A02F0A9FFE07900281ED086
:10458000318808233622464802F084FD05463079FA
:1045900002F0A8FF288000206860E07A01066960C8
:1045A000A07A000401436960607A000201436960F7
:1045B000207A01436960AF70284602F071FD002245
:1045C0007CE00B460A3398421CD10427E07900288E
:1045D00015D0318818233622324802F05BFD05469B
:1045E000307902F07FFF28806288281D009902F050
:1045F00097FCA078E870AF70284602F051FD0022C9
:104600005CE062E00B46083398424FD10325618895
:10461000009A02F05BFFE079002816D0318806236B
:104620003622214802F036FD0746307902F05AFF63
:1046300038800020B880607A0102B980207A014376
:10464000B980BD70384602F02BFD002236E0000034
:1046500002290000A68A0020AC8A0020487B0020A6
:104660004A7B00202C7E00205A7B00203F7E0020C9
:104670006A7B0020527E00207A7B0020657E00202D
:104680008A7B0020787E0020010200009A7B0020B7
:104690008B7E002009D800000AD8000002D8000054
:1046A00003D8000005D8000004D800000D3188426E
:1046B00004D16188009A02F009FF0022A079012844
:1046C00003D12188307902F025FF0020F8BD10B514
:1046D000044A180A1279904202D10888FFF7A0FD17
:1046E000002010BDA68A002010B500F07DFB00F070
:1046F0005FFC00F093FA0020FCF77CF910BD10B5C8
:104700000C2250430B4A80188078FF2803D0088879
:1047100000F027F810BD01F0CBFC10BD10B500F083
:104720005BFA002801D001F0C3FC10BD10B501F008
:10473000BFFC10BDC88A00200021FE4A1378FF2B61
:104740000DD00C234B43D35C834201D10120704731
:10475000491CC9B20C234B43D35CFF2BF1D1002081
:10476000704770B505460024F24E3078FF2816D009
:104770000C20604380198068002809D02046641C02
:104780000C21484380198168E4B22846884701E03B
:10479000641CE4B20C206043305CFF28E8D10024A4
:1047A000E54E3078FF2812D020460C21484381196D
:1047B0008968002904D0305CFFF7BEFF00281BD0B9
:1047C000641CE4B20C206043305CFF28ECD1002470
:1047D000DA4E3078FF2820D01C2060438019006911
:1047E000002813D02046641C1C214843801901690D
:1047F000E4B2284688470BE02046641C0C2148435D
:1048000080198168E4B228468847DBE7641CE4B27B
:104810001C206043305CFF28DED170BD70B5C84DF0
:104820000C2168784843C349085CFF2818D0687891
:104830000C22424352185268002A09D06A78401C60
:1048400068700C204243501840688047002070BDBB
:10485000401CC0B268700C225043085CFF28E6D1AF
:1048600028780C21B44C4843205CFF2814D02878C9
:104870000C21484301194968002904D0205CFFF746
:104880005BFF002820D02878401CC0B228700C2183
:104890004843205CFF28EAD1A8781C214843A74957
:1048A000085CFF2822D0A8781C2242435218D26804
:1048B000002A13D0AA78401CA8701C20424350182C
:1048C000C0688047002070BD2878411C29700C21E9
:1048D0004843001940688047002070BD401CC0B2AA
:1048E000A8701C225043085CFF28DCD10020A8706F
:1048F00068702870012070BDFFB581B00A9F044622
:1049000015461E46304602F08DFE00902670214668
:104910003846009A02F01CFEC8218A4A08238A4EB3
:10492000002802D011807380FEE72078A84202D9C7
:1049300011807380FEE7A84200D32846C2B22270DD
:104940000099029802F0ECFA009802F041FE05B0DE
:10495000F0BD70B505460C461046611C017009217A
:10496000417022461946801C02F0DAFA2878A41C0D
:104970000019287070BDF0B597B07148C068002864
:104980005AD1502332220D21704802F083FB044695
:104990006B4DEC600E21217000276770A780A0216D
:1049A000A181E1810721217401216174A77421464D
:1049B0000B2014310090481E20231C2216911590C4
:1049C000FFF79AFF214631310C2014910090481EC8
:1049D00020231F221390FFF78FFFE8681A22C17C63
:1049E000551A2030007C1D210E1A1297002D01DC73
:1049F000002E09DD3E20129002AA12A9022002F028
:104A0000A7FD002800D0129710A8017A002913D022
:104A10008D4207DBE27C169802AB12181598FFF75F
:104A200098FF09E08E4207DB2034227C149802AB09
:104A300012181398FFF78DFF4148C06817B0F0BDFA
:104A400070B5434D84002959002911D101020E315E
:104A50000A2332223F4802F01DFB0A21017028512F
:104A600010218180082141800021C1807D210181A8
:104A7000285970BD70B5324DA86800281FD1222377
:104A800032220D21344802F005FB03210446AC60BC
:104A900021700A20607010223049A01C02F040FAF8
:104AA00000216182217561751720E0820820208332
:104AB00010206083A1836420E08320342170A868E3
:104AC00070BD10B5012332220D21254802F0E2FA13
:104AD0000221017002F0E4FA10BD10B50C2121484A
:104AE00002F088FC00201F4A01210C2343439B183D
:104AF0001971401CC0B20028F7D01B49322002F0C7
:104B0000D3FC0021322002F0BFFA10BD10B50446DC
:104B100021020E3102233222144802F0BBFA012195
:104B20000170132141700C2254430E4A0021A21837
:104B3000D1701DE0407C00204C7C00202C7D0020AA
:104B4000B08A002000310050003300500E340000C5
:104B5000B48A00200E380000043400001F7C0020BE
:104B600003340000C88A0020707C00200438000054
:104B700002F096FA10BD70B50D46144601020E31D2
:104B80002C2332222D4802F085FA034618462030A5
:104B900005724472184602F083FA70BDEBE610B558
:104BA000FFF7E9FE02F07CFA25490020C8600221E7
:104BB000322002F069FA10BD10B504462046FFF716
:104BC0003FFF02F06DFA00201E4AA1005050042160
:104BD000322002F059FA10BD10B50121322002F046
:104BE00053FAFFF71BFE10BD18E610B5FFF742FFA2
:104BF00002F056FA12490020886010BD0021124AC6
:104C00004B00D35C834203D1480080184078704742
:104C1000491CC9B20A29F3D30120704710B40020FF
:104C2000FF22094B012441005A54C9184C70401C02
:104C3000C0B20A28F7D310BC704700000238000049
:104C4000B08A0020B48A0020D48A002010B5104613
:104C500002F0FCF9002809D1012332220D215E481F
:104C600002F018FA0121017002F01AFA002010BDBA
:104C700070B50C78594D0E2C24D008DC012C15D0C1
:104C8000022C25D0032C17D00D2C08D10CE00F2CB2
:104C90000AD0102C08D0112C06D0122C16D02C685B
:104CA000002C01D02C68A047002070BD4878002857
:104CB000FAD1FFF79AFFF7E748780028F4D1FFF719
:104CC0002DFDF1E7487801F02FFAEDE74878EBE7A2
:104CD0002C68002CE8D02C68A047E5E7F8B50E4614
:104CE00010461C4602F0B2F9022822D1240A0C20F8
:104CF00060433B4907464518AC70FF2C15D0012096
:104D0000E8700521322002F0BFF935483188C153DF
:104D1000707A68717089E880B0892881F08968812B
:104D2000002211462046FFF726FF3146204601F0BB
:104D3000D4F90020F8BD70B50C46164621780A2932
:104D400009D0264D2968002903D021462C68324617
:104D5000A047002070BD304602F078F90428F8D151
:104D600060780028F5D10521304602F08DF9F0E792
:104D700010B50C46104602F069F9032803D0052847
:104D800001D0042802D1204601F0D2F9002010BD44
:104D900010B50C46104602F059F9012808D12078C8
:104DA000002805D1FFF720FF002801D0FFF7BEFC47
:104DB000002010BD0020704770B584B01546089AD9
:104DC0001E46084B07240193009202942B4632465C
:104DD00000F0A6FE04B070BD02340000807C00200C
:104DE000C88A0020847C0020704710B51C21022353
:104DF0003222880202F04EF9FF217431018002F064
:104E00004FF910BD70B50546042332221C21074816
:104E100002F040F9044625801C20FFF7EFFEA07049
:104E20000020E070204602F03BF970BD03700000E6
:104E3000F0B583B00D46104602F008F901287DD187
:104E40002878002876D10E2332221C214A4802F00D
:104E500021F90446002020700B2060700B2247A12E
:104E6000A01C02F05DF8204602F01AF90A23322253
:104E70001C21414802F00EF904460120207007264B
:104E80006670072240A1A01C02F04AF8204602F0FA
:104E900007F90B2332221C21374802F0FBF80446A5
:104EA0000620207008276770082239A1A01C02F094
:104EB00037F8204602F0F4F8082332221C212E484D
:104EC00002F0E8F8044605222270627033A1A01CAB
:104ED00002F026F8204602F0E3F80A2332221C21D1
:104EE000254802F0D7F80446042020706670324648
:104EF0002CA1A01C02F014F8204602F0D1F80A23DD
:104F000032221C211C4802F0C5F804462770667046
:104F10000120A070D220694688800B20C001C88083
:104F200078010881062201A9E01C01F0F9FF204662
:104F300002F0B6F801233222114600E006E09002AA
:104F400002F0A8F82978017002F0AAF8002003B056
:104F5000F0BD0020704770B584B01546089A1E4613
:104F6000124B02240193009202942B46324600F029
:104F7000D7FD04B070BD0000027000004469616C90
:104F80006F672053656D69004441313435387800CE
:104F9000123456FFFE9ABCDE00000000782E792EF7
:104FA0007A000000765F352E302E3400CC7C002055
:104FB000F9480021017441618161C1600177F74ABC
:104FC0001165142101707047F3490020087448618D
:104FD000C860704710B5012332223621F04802F034
:104FE00059F80021017002F05BF810BD70B505465C
:104FF000362110233222880202F04CF80446E94898
:10500000058025803620FFF7F9FDA0700021616042
:10501000A160204602F044F870BD10B50446E24895
:10502000042302883621E14802F034F8DD4909887A
:105030000180847002F034F810BD10B5D64C207891
:10504000022801D1FDF76AFC2078032801D1FDF781
:1050500004FC14202070002001F08AF810BD38B53F
:105060000446CD4A107A0009A070107A0007000F9C
:10507000E07010890004000F207011890905090FE4
:1050800061709268120C6260002509232A4600951F
:10509000FCF781FF0095E178A0780A230022FCF755
:1050A0007AFF38BD70B584B00646012464046512E9
:1050B00000200090019003460246014602903046CF
:1050C000FDF773FBFDF7F7FA80B2B949421806D035
:1050D0002D200002121A02D0012A00D19404294680
:1050E0002046FDF73FFA04B070BDF8B50446AA4863
:1050F000017A0909A171017A0907090FE171018992
:1051000009040D0F257001890905090F6170826876
:105110001202120FA27082681203120FE2708268EC
:10512000120F227180680001000F607101200326B8
:1051300036020090082332462846FCF72CFF002553
:105140000095E179A07907233246FCF724FF00950A
:10515000E178A07806233246FCF71DFF00956179BF
:10516000207905230022FCF716FFF8BD10B584B0A6
:10517000AA200290884C2078132813D06846FFF7A5
:105180006EFF0198012380B200220221FDF7A0FBEF
:1051900060686946801C097AFDF799FC0220C0B25C
:1051A00004B010BD6846FFF7A0FF6846FFF77AFF1E
:1051B00061680122891C02A8FDF797FA40B2012814
:1051C000EDD10220EBE710B5012000F0D1FF724CC9
:1051D0002078C00603D40120FFF71FFF02E0102053
:1051E000FFF71BFF002020746061A061E060207762
:1051F00010BDF8B50E4600213160040E664F142C28
:1052000018D225463C7080B27860002D01D0012D67
:1052100007D16849796028060843002102F09EF909
:1052200030603878122801D0132803D1786802281A
:105230000BD87874112C28D010DC022C22D008DC7A
:10524000002C1FD0012C15D11CE01120FFF7E5FE2A
:10525000F8BD032C16D0102C0CD116E0FD2C30D04C
:1052600004DC122C0ED0132C04D10BE0FE2C18D031
:10527000FF2C0ED00820FFF7D0FE1420387000203D
:105280003060F8BDFFF79FFFF8BD0820FFF7C5FEAF
:10529000F8BDFFF7D2FEFFF797FE0320FFF7BDFE34
:1052A000F8BD387F002803D00420FFF7B6FE03E0E6
:1052B000FFF75CFFFFF7B1FEFFF7BFFEFFF784FECD
:1052C000F8BD3D48012101723C488078FFF71EFC83
:1052D000F8BD10B504463448042302883621384806
:1052E00001F0D8FE046001F0DBFE10BDF0B587B020
:1052F0000224294BE701187800280CD001280AD095
:1053000019464A688968022836D003287ED00824C6
:10531000022C7CD0B4E0274D00062843002102F087
:105320001DF90646B004000C1B490A7C1118B9424D
:1053300001D90724ECE7381A174F801A80B22149A7
:105340005118214B1818002A09D00A680260001D64
:10535000091F3A7C121FD2B23A74002AF5D138786C
:1053600000210006284302F0F9F8B04201D10724D9
:10537000CEE7FFF7AEFFCBE701204006104302F077
:10538000EDF80646B004050C0348007C4019B8420D
:105390001CD90724BCE70000F08A002020900020E0
:1053A00008D80000EC8A0020A68A002007D8000058
:1053B000F03DFFFF6C910020108B0020C88A002078
:1053C00006D800001C9000207090002002A8FFF773
:1053D00046FE0398012380B200220221FDF778FAED
:1053E000FE4F01AB78683A7C4119FD48FDF7D5FBCB
:1053F000FDF79EFA3878796800060843B96802F02C
:10540000ADF8397C019A914204D101E006E033E025
:10541000B04200D10624FFF75CFF79E703200006C5
:10542000104302F09BF80646B004050CEB48007CE4
:105430004019B84201D907246AE704A8FFF755FECE
:1054400004A8FFF72FFEE54F78683A7C4119E4483D
:10545000FDF74BF901903878796800060843B96880
:1054600002F07CF8397C019A914201D1B04200D11E
:105470000624FFF72EFF4BE7FFF7DFFDFFF7A4FD44
:10548000E0B2FFF7CAFD07B0F0BDF8B50246002054
:10549000C043160B36030C0B090500D0641C002C0E
:1054A00000D101240025002C0BD901273F03202126
:1054B0003046FDF7ECF8F619002802D16D1CA54224
:1054C000F5D3F8BD0021FF2802D0401CC0B27047C0
:1054D00008467047FF2801D1FF2902D0FF2802D0DB
:1054E00003E001207047002902D0FF2902D003E029
:1054F00001207047002803D0884203D9022070475A
:10550000022070470120704738B505460024E44367
:10551000B2480078132806D06B462846FDF7AAFA51
:10552000002806D104E02846FDF757F8044600E0BD
:10553000009C204638BDF7B59AB007460C460025BA
:1055400000261C98402802D212201DB0F0BD207801
:10555000702802D16078512802D012201DB0F0BD11
:10556000606816909D49403008621F210C22090393
:1055700006A8FFF7C9FF0C2802D016201DB0F0BD09
:105580006846007E702803D16846407E522802D0CB
:1055900014201DB0F0BD0798059008980490169847
:1055A000002805D005990498411A1698814202D224
:1055B00013201DB0F0BD06A817904022059917983A
:1055C000FFF7A2FF402802D016201DB0F0BD6846AC
:1055D000C07E03906846817E09A8199020460C3051
:1055E0001890AA2907D16846007E702803D1684622
:1055F000407E512803D00125002003900BE01022AB
:105600001999189801F086FC002804D1E0690D99D9
:10561000884200D10225402204991798FFF774FFB1
:10562000402802D016201DB0F0BD6846C07E029012
:105630006846807EAA2807D16846007E702803D17C
:105640006846407E512803D00126002002900BE0DE
:1056500010221999189801F05DFC002804D1E06926
:105660000D99884200D10226002F01D0022F08D9BF
:10567000012D27D0012E27D002990398FFF72AFF8A
:105680000746FF22402106A801F06EFF022F1DD021
:10569000022D2ED0514905984860002E2CD0022EA4
:1056A0002AD001264D4D287813282AD001AB40225C
:1056B00006A86968FDF771FA019840282CD00620E9
:1056C0001DB0F0BD0127DCE70227DAE7022E08D083
:1056D000424904984860002D06D0022D04D00126CE
:1056E000E0E715201DB0F0BD0398FFF7EBFE06467E
:1056F000D8E715201DB0F0BD0298FFF7E3FE06467F
:10570000D0E71698403081B26868FFF7BEFE0028E7
:1057100002D006201DB0F0BD6946CE7660680790C5
:10572000A068089063692269E168A0690B930A92F6
:1057300009910C90E0690D902078694608766078B0
:1057400048762020005D08A9087620461C9C297810
:105750004030403C13290BD0696801AB40312246F0
:10576000FDF71BFA0198A04216D006201DB0F0BD2F
:10577000696822464031FCF7B8FFA04202D00620FB
:105780001DB0F0BD402269681798FCF7AEFF4028B5
:105790000ED006201DB0F0BD01AB402269681798FD
:1057A000FDF7FBF90198402802D006201DB0F0BD9E
:1057B00000201DB0F0BD70B586B002240020074D5A
:1057C0006E69002E07D9074A297F135C5940297753
:1057D000401C8642F8D82878002605E0F08A002090
:1057E0002090002070900020122807D0132844D069
:1057F0000824E0B2FFF711FC06B070BD02A8FFF765
:105800002EFC0398012380B200220221FDF760F8EC
:105810006A69002A02D0A869002816D0A969286AF6
:105820008A18431C9A4222D8824201D9401A6861E0
:10583000686801AB41182E486A69FDF7AEF96869DE
:10584000019988420FD0062412E0687C2849FFF7AE
:1058500072FE0190002801D084B209E06969A8694C
:105860004018A86104E0A9690818A86100E00624AE
:105870006E61A869FFF72DFDBBE704A8FFF735FCB3
:1058800004A8FFF70FFC6A69002A02D0A869002863
:1058900015D0A969286A8A18431C9A4221D88242E5
:1058A00001D9401A686168686A6941181048FCF7B4
:1058B0001CFF0190696981420FD0062412E0687CC8
:1058C0000B49FFF738FE0190002801D084B209E0AF
:1058D0006969A8694018A86104E0A8694018A8612E
:1058E00000E006246E61A869FFF7F3FC81E7000081
:1058F0007090002010B50C46104601F0A7FB01285F
:1059000009D1322201231146900201F0C3FB217814
:10591000017001F0C5FB002010BD70B50C465F4D55
:10592000287814284ED2A17800294ED0E9680029A1
:1059300044D0C0061ED4287CE2788118502916D89D
:1059400057494018211D01F0EBFA287CE1784018F6
:10595000C0B22874E968814201D1FFF7C7FC287CF6
:10596000E968884206D90520FFF757FB02E00720C7
:10597000FFF753FB2878C00627D5E2786869FF2334
:1059800081180133994215D846494018211D01F06C
:10599000C7FAE178686940186861E968814201D115
:1059A000FFF709FFE968686988420ED90520FFF70B
:1059B00034FB0AE00720FFF730FB06E00520FFF785
:1059C0002CFB02E00820FFF728FB002070BD08B583
:1059D0008878002806D048686946FFF70AFC0098D6
:1059E000FFF777FC002008BD10B5887800280ED09E
:1059F0002A4A49689160107802280AD0032808D002
:105A0000122804D0132802D00820FFF706FB00203C
:105A100010BD52680006104301F0A0FDFFF759FCCD
:105A2000F5E770B50C46A078002824D0A08800289F
:105A300005D01A4D2978CA0605D4820703D005205F
:105A4000FFF7EBFA17E0142915D2C9060AD450283B
:105A500003D90720FFF7E1FA0DE0FFF7B5FAA088B8
:105A6000E86008E0FF210131884203D90720FFF7F1
:105A7000D4FA00E0E860002070BD70B584B015462F
:105A8000089A1E46084B05240193009202942B4667
:105A9000324600F045F804B070BD0000F08A0020E6
:105AA0002090002070900020DC7C0020FFB583B0A7
:105AB0000024284F02AEA00000963D5803A80FC84E
:105AC000A84700280DD0641C052CF4D3224C206874
:105AD000002803D003A80FC82468A047002007B0FF
:105AE000F0BD6846007A07B0F0BD10B4002A0ED0B1
:105AF000521E002A11DB194CD300CB5A834201D02D
:105B0000A34207D1D0004018406810BC704710BCB9
:105B100000207047521E002AEEDA10BC00207047A9
:105B2000FFB581B016460A9D0C9A0B991F46019845
:105B3000FFF7DBFF0446200008D033463A460299BF
:105B40000198A0472870002005B0F0BD012005B0E5
:105B5000F0BD0000087D0020047D0020FFFF000054
:105B600010B5052000070089000608D50120800730
:105B7000006B000403D401F0E5F9C00701D0002058
:105B800010BD012010BD00000021814A8B00D358B8
:105B9000002B04D0491C0A29F8DB002070478B0039
:105BA000D050491CC8B27047401E092809D8784A0D
:105BB00080001158002904D000231350754A135057
:105BC0000847704770B504460D46FFF7C9FF002827
:105BD00007D071482A46201880B2322101F092FB8A
:105BE00070BDFAF714FF3222042311466B4801F00E
