:020000040800F2
:10000000E82600201D180008A7180008A9180008F5
:10001000AB180008AD180008AF1800080000000079
:10002000000000000000000000000000B1180008FF
:10003000B318000800000000B5180008B718000841
:10004000371800083718000837180008D9220008A8
:100050003718000837180008371800083718000844
:100060003718000837180008371800083718000834
:100070003718000837180008371800083718000824
:100080003718000837180008371800083718000814
:100090003718000837180008371800083718000804
:1000A00037180008371800083718000837180008F4
:1000B00037180008371800083718000837180008E4
:1000C00037180008371800083718000837180008D4
:1000D00037180008271E00082D1E0008331E0008D0
:1000E00037180008371800083718000837180008B4
:1000F00037180008371800083718000837180008A4
:100100003718000837180008371800083718000893
:100110003718000837180008371800083718000883
:100120003718000837180008371800083718000873
:1001300000F002F800F057F80AA090E8000C8244A2
:100140008344AAF10107DA4501D100F04CF8AFF27F
:10015000090EBAE80F0013F0010F18BFFB1A43F0A5
:1001600001031847B88F0000D88F0000103A24BF51
:1001700078C878C1FAD8520724BF30C830C144BF0C
:1001800004680C607047000000230024002500264E
:10019000103A28BF78C1FBD8520728BF30C148BFEA
:1001A0000B607047672908F05E86692904F09A861B
:1001B000782904F0D386002070471FB59DE803001E
:1001C00005F046F905F014FF04000020002107F0B7
:1001D0007DFF401C60600020002107F08DFFE06083
:1001E0001FBD10B510BD06F0E7F91146FFF7E5FF9A
:1001F00001F054FB06F030FC03B4FFF7F2FF03BC40
:1002000006F060FC0CB500224C4800920192016897
:1002100041F4803101604FF4A063016801F40031C2
:1002200001910099491C0091019911B900999942D5
:10023000F3D10168890333D50121019140490A684E
:1002400042F010020A600A6822F003020A600A689B
:1002500042F002020A6041684160416841604168C1
:1002600041F480614160416821F47C114160416842
:1002700041F4E8114160016841F08071016001685A
:100280008901FCD5416821F003014160416841F0DA
:10029000020141604168C1F381010229FAD10CBD1C
:1002A00001920CBD254810B5016841F001010160C3
:1002B0004168244A114041600168234A11400160AD
:1002C000016821F480210160416821F4FE01416050
:1002D0004FF41F018160FFF795FF1C494FF000604C
:1002E000086010BD154A10B55068194B10F00C018C
:1002F000184803D0042901D0082901D0036012E076
:100300005168536801F470114FF0020413F4803FF8
:1003100004EB914102D053689B0301D50E4B00E0E2
:100320000B4B5943016051680A4AC1F30311121D76
:10033000515C0268CA40026010BD0000001002401B
:10034000002002400000FFF8FFFFF6FE08ED00E08D
:1003500000127A000000002000093D0028490843EF
:1003600028490860704730B50F23C278017801250D
:10037000F2B1244A126801F1E02102F4E062C2F510
:10038000E062120AC2F10404D3404278A2408478A9
:100390001C401443220181F80024007800F01F0162
:1003A0008D404009800000F1E020C0F8005130BDD0
:1003B00001F01F0085404809800000F1E020C0F8EE
:1003C000805130BD104A114001430E48001F0160AA
:1003D00070470C4A121D0029116801D0014300E04A
:1003E0008143116070474FF0E0210428086903D071
:1003F00020F004000861704740F00400FAE70000B4
:100400000000FA050CED00E080FFFF1FC54910B5A4
:10041000884202D1012144150AE0C349884202D131
:100420000121041504E0C14988420AD10121CC030D
:10043000204600F09AFF2046BDE81040002100F061
:1004400094BF10BD10B54268B94B0C791A400B68C7
:1004500042EA0422134343608268B64B1A40D1E952
:10046000024323434C7942EA440213438360C26A45
:10047000097C22F47002491EC9B242EA0151C162EC
:1004800010BD00210160017141718160C1600121D5
:10049000017470470029816802D041F0010101E038
:1004A00021F00101816070470029816802D041F488
:1004B000807101E021F4807181607047002A4268F8
:1004C000C9B201D00A4300E08A43426070478168A4
:1004D00041F00801816070470146002089680907E2
:1004E00000D501207047816841F0040181607047A8
:1004F000014600208968490700D50120704700297E
:10050000816802D041F4A00101E021F4A0018160E2
:100510007047014600208968490200D501207047D4
:100520004268491E22F4604242EA4131416070470C
:100530000029416802D041F4006101E021F400612A
:100540004160704770B5072609290AD9C568A1F12D
:100550000A0404EB4404A640B543A3401D43C56010
:1005600007E0056901EB4104A640B543A3401D43E4
:1005700005611F23072A09D2446B521E02EB820237
:1005800093409C4391400C43446370BD0D2A09D2B3
:10059000046BD21F02EB820293409C4391400C43B8
:1005A000046370BDC46A0D3A02EB820293409C431F
:1005B00091400C43C46270BD0029816802D041F4AF
:1005C000801101E021F4801181607047C06C80B21D
:1005D000704754484C30006870470029416802D089
:1005E00041F4806101E021F480614160704700299D
:1005F000416802D041F4805101E021F48051416012
:100600007047826822F4E0420A4382607047002902
:10061000816802D041F4004101E021F40041816091
:1006200070470029816802D041F4021101E021F4F1
:10063000021181607047014600208968890200D557
:100640000120704770B5072609290AD9C568A1F1AC
:100650000A0404EB4404A640B543A3401D43C5600F
:1006600007E0056901EB4104A640B543A3401D43E3
:100670000561836BC3F30154121B921C02EB8202CF
:100680001F249440A34391400B43836370BD826B4E
:10069000491E22F4401242EA01518163704708B5B5
:1006A00008440090026008BD08B508442830009056
:1006B000006880B208BD42681F4B1A400A4342607E
:1006C0007047416282627047426822F01F020A430B
:1006D00042607047134908310028086802D040F48E
:1006E000000001E020F4000008607047024600208E
:1006F00012680A4200D001207047C9430160704768
:1007000010B50246002054680B0AC9B20C401168AB
:10071000194202D0002C00D0012010BD6FEA112137
:10072000016070470024014000280140003C014066
:10073000FFFEF0FFFDF7F1FFFFFD3FFF10B50120C9
:1007400000F025FEBDE81040002000F020BE1F494B
:10075000086070471D49091F086070471B498431B4
:10076000086070471A4A118821F4607101431180B2
:100770007047174A118821F07F01014311807047AB
:10078000134A08B52C3A10440090016008BD104986
:1007900008B52C3908440090008808BD0B489C30EF
:1007A0000068C0B270470A480830018841F0010172
:1007B000018070470548A0300068C0B27047044807
:1007C0000830018841F002010180704704860D4223
:1007D0002C6C004001684FF6FE7211400160002150
:1007E000016041608160C1606A496A4A083990428B
:1007F00003D1486840F00F0006E0664A1432904288
:1008000004D1486840F0F00048607047614A2832DF
:10081000904203D1486840F47060F5E75D4A3C328D
:10082000904203D1486840F47040EDE7594A503295
:10083000904203D1486840F47020E5E7554A64329D
:10084000904203D1486840F47000DDE7514A7832A5
:10085000904203D1486840F07060D5E74E4A111FBE
:10086000904203D1086840F00F0006E04A4A143273
:10087000904204D1086840F0F00008607047464A92
:100880002832904203D1086840F47060F5E7424A8C
:100890003C32904203D1086840F47040EDE73E4A94
:1008A00050329042EAD1086840F47020E5E730B554
:1008B000026847F6F0739A430C6A8B682343D1E9C8
:1008C00004452C4323438C692343CC6923434C6A5E
:1008D00023438C6A234313430360CA6842600A6857
:1008E00082604968C16030BD002101604160816063
:1008F000C160016141618161C161016241628162E6
:1009000070470029016802D041F0010102E04FF672
:10091000FE72114001607047002A026801D00A434C
:1009200000E08A430260704741607047406880B2CF
:10093000704702460020D10002D51749083901E06E
:10094000144908390968114200D001207047C100DC
:1009500003D51149091F086070470E4908394860DE
:10096000704702460020D10002D50B49083901E04A
:10097000084908390968114200D001207047C100B8
:1009800003D50549091F08607047024908394860C6
:10099000704700000800024008040240FD4A116848
:1009A00001F03801014311607047FA490A6822F0EA
:1009B00008020A600A6802430A607047F5490A683B
:1009C00022F010020A600A6802430A607047F14888
:1009D000F1494160F14941607047EE48EE4941609C
:1009E000EE4941607047EB48016941F080010161C7
:1009F0007047E848016941F0800101617047E549AD
:100A00000420CA68D20701D001207047CA68520783
:100A100001D502207047C968C906FBD5032070477D
:100A200000B50346FFF7EBFF02E0FFF7E8FF5B1EB0
:100A3000012803D0002B00D1052000BD002BF4D1EC
:100A4000FAE770B505464FF430263046FFF7E8FF69
:100A5000042811D1CF4C206940F00200206165616B
:100A6000206940F0400020613046FFF7D9FF21693E
:100A700041F6FD721140216170BD30B54FF4302553
:100A80002846FFF7CDFF042810D1C24C206940F062
:100A900004002061206940F0400020612846FFF7F3
:100AA000BFFF216941F6FB721140216130BD00B5E5
:100AB0000346FFF7A4FF02E0FFF7A1FF5B1E01283A
:100AC00003D0002B00D1052000BD002BF4D1FAE7A4
:100AD00030B54FF430252846FFF7E9FF042810D140
:100AE000AC4C206940F004002061206940F04000D7
:100AF00020612846FFF7DBFF216941F6FB721140B8
:100B0000216130BDA3490020C969890700D50120B2
:100B1000704770B5A525FFF7F5FF00B100254FF42C
:100B200030263046FFF77CFF042827D1994C9A489D
:100B3000A0609A48A060206940F0200020612069F0
:100B400040F0400020613046FFF76AFF41F6EF7643
:100B500004280ED1206941F6DF7108402061206928
:100B600040F0100020618E4805804FF40050FFF7E0
:100B700057FF052802D021693140216170BDF8B5C9
:100B8000064600204FF4005C00900D466046FFF7DB
:100B900047FF042816D17F4C206940F001002061F6
:100BA00035806046FFF73CFF41F6FE77042806D10A
:100BB000B61C280C009630806046FFF731FF216993
:100BC00039402161F8BDF0B506464FF400570D4697
:100BD0003846FFF725FF04280CD16E4C206940F001
:100BE0000100206135803846FFF71AFF2169BA1EDF
:100BF00011402161F0BDF0B506464FF400570D4697
:100C00003846FFF70DFF042813D1624C6248A060FC
:100C10006248A060206940F01000206135803846AD
:100C2000FFF7FEFE052804D0216941F6EF7211405E
:100C30002161F0BD2DE9F041C043C7B2C0F30726E2
:100C4000C0F30745040E4FF400584046FFF7E8FE96
:100C500004283CD1DFF83CC14F49CCF808104F497B
:100C6000CCF80810DCF8101041F01001CCF810108E
:100C7000FF2F07D04A48083007804046FFF7D0FED4
:100C800004281BD1FF2E07D045480A300680404675
:100C9000FFF7C6FE042811D1FF2D07D040480C30C5
:100CA00005804046FFF7BCFE042807D1FF2C07D083
:100CB0003B480E3004804046FFF7B2FE052806D0C0
:100CC000DCF8101041F6EF721140CCF81010BDE8BE
:100CD000F08170B505464FF430263046FFF7A0FE90
:100CE000042818D12B4C2C48A0602C48A060206907
:100CF00040F020002061206940F040002061304633
:100D0000FFF78EFE41F6DF71042805D0052802D0DA
:100D100022690A40226170BD206908402061206973
:100D200040F0100020611E480DB1002100E0A52117
:100D300001803046FFF774FE0528ECD0216941F6AA
:100D4000EF721140216170BDF0B5124C0746124898
:100D500016460D46A0601148A0604FF4005C604646
:100D6000FFF75EFE042814D1206940F010002061D6
:100D700035430B493D43891C45F0F8000880604627
:100D8000FFF74EFE052804D0216941F6EF721140AD
:100D90002161F0BD0020024023016745AB89EFCD02
:100DA00000F8FF1F1C48C069800870471A48006A95
:100DB0007047194900200968890600D5012070474D
:100DC000154A0029116901D0014300E081431161F6
:100DD000704701460020104A012903D0D2680A4218
:100DE00003D17047D169C907FBD0012070470A4978
:100DF000C860704708490420CA68D20701D00120A2
:100E00007047CA68520701D502207047C968C906F1
:100E1000FBD5032070470000002002408F4910B529
:100E2000884206D10121042000F09FFA002104200D
:100E30003BE08B49884206D10121082000F095FA59
:100E40000021082031E08749884206D10121102085
:100E500000F08BFA0021102027E08349884206D158
:100E60000121202000F081FA002120201DE07F498F
:100E7000884206D10121402000F077FA002140206D
:100E800013E07B49884206D10121802000F06DFAF1
:100E90000021802009E0774988420AD18415012188
:100EA000204600F062FA00212046BDE8104000F024
:100EB0005CBA10BD10B50121084600F056FA0021B9
:100EC000BDE81040012000F050BAF0B5CC78002207
:100ED00004F00F03E40601D58C7823430C784FF01F
:100EE0000F0C14F0FF0F4FF0010E1BD005680E8899
:100EF0000EFA02F42640A64210D196000CFA06F72C
:100F000025EA070703FA06F5CE783D43282E02D0DE
:100F1000482E02D002E0446100E00461521C082A1D
:100F2000E5D305600A88FF2A1CD94468002202F133
:100F300008060EFA06F50E882E40AE420ED1960037
:100F40000CFA06F7BC4303FA06F7CE783C43282E8A
:100F500000D14561CE78482E00D10561521C082A87
:100F6000E5D34460F0BD4FF6FF710180022181702E
:100F70000421C17070470246002092680A4200D0E6
:100F800001207047806880B2704702460020D26816
:100F90000A4200D001207047C06880B270470161EA
:100FA0007047416170470AB1016170474161704704
:100FB000C160704741F480328261816182618169E0
:100FC000806970472C4B10B51A684FF68074224028
:100FD00042EA00100843186010BD2849C8617047F4
:100FE000F0B5254C002801DAE36900E06368450D9F
:100FF0002E0185B2C0F30157B540C0F30342032F61
:1010000005D0C6020AD503269640B34307E023F075
:101010007062636823F07063636002E0AB4343F087
:10102000706201B12A43002801DAE261F0BD62601A
:10103000F0BD10B58A0721F003040F49120F2144B7
:101040000F238C6893409C438C608B6890400343D3
:101050008B6010BD0949C1F8DC00704700080140F1
:10106000000C014000100140001401400018014034
:10107000001C01400020014000000140000020420F
:1010800010B501210C07204600F078F92046BDE894
:101090001040002100F072B92149086270472049D0
:1010A000086170471F4A116821F0E0010143116097
:1010B00070471B49C1F8A00070471A4B1A6822F00C
:1010C000030202431A601848026842F004020260F8
:1010D000012905D020BF016821F00401016070479B
:1010E00030BFF8E70F48016841F004010160016872
:1010F00041F0020101600C48016841F00401016007
:1011000030BF7047074A0146002052680A4200D0AB
:101110000120704703490A6842EA8000086070476E
:1011200000000E420070004010ED00E0A54801688C
:1011300041F0010101604168A34A1140416001682A
:10114000A24A11400160016821F4802101604168D8
:1011500021F4FE0141604FF41F01816070479949FD
:101160000A6822F480320A600A6822F480220A6047
:10117000B0F5803F07D0B0F5802F03D1086840F468
:10118000A02008607047086840F48030F9E7034603
:10119000002059098B4A01290AD002290AD0516A34
:1011A00003F01F02012393400B4200D0012070473F
:1011B0001168F5E7116AF3E718B500204FF4A06451
:1011C00000903120FFF7E3FF0099491C0091A142F4
:1011D00001D00028F5D03120FFF7D9FF002800D03A
:1011E000012018BD774A116821F0F80141EAC000DA
:1011F00010607047764908607047724B5A68084320
:1012000022F47C1210435860704771490866704799
:101210006C4A516821F003010143516070476948ED
:10122000406800F00C007047664A516821F0F001F8
:10123000014351607047634A516821F4E061014302
:10124000516070475F4A516821F4605141EAC00023
:10125000506070475B4A0029517A01D0014300E099
:101260008143517270475A49C1F8D8007047554AB6
:10127000516821F4404101435160704751490022B7
:1012800081F8202081F82020012802D0042802D1F2
:10129000052081F8200070474E4908607047494991
:1012A0000A6A02430A6270474A4944390860704733
:1012B00030B5444A5168484B11F00C0103D0042961
:1012C00001D0082901D0036012E05168536801F48D
:1012D00070114FF0020413F4803F04EB914102D0EF
:1012E00053689B0301D53D4B00E03B4B59430160E4
:1012F00051680F2303EA1111394B5C5C0168E1402E
:1013000041605468072505EA14241C5D21FA04F4A1
:101310008460546805EAD4241B5DD940C1605268DA
:10132000032303EA92322E4B1B1F9A5CB1FBF2F1AE
:10133000016130BD234A0029516901D0014300E019
:101340008143516170471F4A0029916901D00143CF
:1013500000E08143916170471A4A0029D16901D0A8
:10136000014300E08143D1617047164A0029D168EA
:1013700001D0014300E08143D1607047114A002948
:10138000116901D0014300E08143116170471149A7
:101390004039086070470E49C86470470949C871F0
:1013A00070470848416A41F0807141627047054AC0
:1013B0000146002092680A4200D00120704701498E
:1013C00088727047001002400000FFF8FFFFF6FE31
:1013D000000042428004424200127A0000093D00AF
:1013E00018000020424A0029118801D0014300E082
:1013F0008143118070473E48001D018841F0100173
:10140000018070473A48001D018821F010010180D9
:10141000704737481C30008835491831098840EA40
:101420000140704700B50246FFF7E5FF3049100C58
:1014300018310880081D02805DF804EBE2E700B572
:101440000246FFF7D8FF2A49C2F30340083108805B
:10145000081D02805DF804EBD4E700B50246FFF7F3
:10146000CAFF2349100C20310880081D02805DF856
:1014700004EBC7E71E48103000880007010B1C482A
:1014800014300088084370471948001D01888906F8
:10149000FCD570471648001D018821F00801018025
:1014A00001880907FCD570470146114A0020121D2A
:1014B00012880A4200D0012070470D49091D0A8890
:1014C00082430A8070470A49091D0988C2B2114047
:1014D000074A1288024202D009B101207047002059
:1014E00070470349091D0A8882430A80704700003B
:1014F00000280040C44910B588420AD101218C035C
:101500002046FFF732FF2046BDE810400021FFF7DC
:101510002CBFBE49884202D101214C0410E0BC49D5
:10152000884202D101218C040AE0BA49884202D1E2
:101530000121CC0404E0B84988420AD101210C05FC
:101540002046FFF71BFF2046BDE810400021FFF7B3
:1015500015BF10BD30B50446008A85B00D464CF667
:10156000FF710840E98801432182A0894EF6F311FA
:101570000840A9882A8911436A8902431143A1813D
:10158000A08A4FF6FF410840A9890143A18268461D
:10159000FFF78EFE9C48844201D1039800E0029838
:1015A000A189090400EBC00101EB0010296801D5F5
:1015B000490000E08900B0FBF1F06422B0FBF2F1D9
:1015C00009010B096FF018056B4300EB8300A38939
:1015D0001D044FF0320306D503EBC000B0FBF2F060
:1015E00000F0070005E003EB0010B0FBF2F000F0A4
:1015F0000F000843208105B030BD4FF41651016043
:1016000000218180C18001810C224281818170474B
:1016100010B5028A4FF2FF031A400B884C8823430F
:101620008C88C9880C4323431343038210BD0021D7
:10163000018041808180C18070470029818902D06A
:1016400041F4005101E021F400518181704710B54F
:10165000C1F3421301F01F040121A140012B07D067
:10166000022B07D01430002A026805D00A4304E098
:101670000C30F8E71030F6E78A43026010BD002A0C
:10168000828A01D00A4300E08A4382827047028A3C
:1016900022F00F020282028A0A4302827047828984
:1016A00022F40062828182890A4382817047002984
:1016B000818902D041F0020101E021F00201818123
:1016C0007047028A22F020020282028A0A430282C2
:1016D00070470029018A02D041F4804101E021F4E1
:1016E000804101827047C1F3080181807047808882
:1016F000C0F308007047818941F001018181704782
:10170000028BD2B20283028B42EA0121018370472D
:10171000028B02F47F420283028B0A4302837047EA
:101720000029818A02D041F0200101E021F020014E
:10173000818270470029818A02D041F0100101E0C6
:1017400021F01001818270470029818A02D041F086
:10175000080101E021F00801818270470029818998
:1017600002D041F4004101E0C1F30E0181817047D4
:101770000029818A02D041F4006101E021F4006176
:1017800081827047828A22F004028282828A0A431E
:10179000828270470029818A02D041F0020101E073
:1017A00021F00201818270470246002012880A421D
:1017B00000D001207047C9430180704770B501F027
:1017C0001F0501260024C1F3421306FA05F2012B7E
:1017D0000FD0022B0FD0838A4FEA112100881342C9
:1017E00006FA01F600EA060001D000B10124204605
:1017F00070BD8389F0E7038AEEE70A0A0121914070
:10180000C943018070470000003801400044004097
:1018100000480040004C004000500040094880470C
:1018200009480047FEE7FEE7FEE7FEE7FEE7FEE7C2
:10183000FEE7FEE7FEE7FEE704480549054A064BDA
:1018400070470000A502000831010008E8220020CE
:10185000E8260020E8240020E824002010B502F04B
:1018600075FB00F0CEFC02F0DAFD03F07EF940F2E9
:10187000DC5000F0D9FC03F082F900F03BFDBDE83C
:10188000104003F0A0B810B502F0F8FD03F09AF88C
:1018900003F098F9BDE8104000F038BDFFF7DEFF17
:1018A000FFF7F1FFFCE77047FEE7FEE7FEE7FEE724
:1018B00070477047704700F019BB00002DE9F047F2
:1018C00092B04FF0000904468DF843904D464FF416
:1018D00080674FF40068644E4FF4807A31E06FF017
:1018E0000301A06801EBC5014058811BB0426FD0D5
:1018F0000DDC5E49401812D0B84218D040451ED1C8
:1019000001211020FFF71FFD10A9594815E0B94229
:1019100065D041456AD0B1F5406F10D16DE001212D
:101920000420FFF710FD514810A9404205E00121B5
:101930000820FFF708FD10A94E48FFF7C6FA6D1CF6
:10194000EDB22079A842CAD820684B494C300090AB
:1019500004F10C00CDE901092079CDE903098020CB
:10196000CDE9050A2020CDE907700002CDE909097B
:1019700020684D46C84213D101210846FFF7DAFC22
:101980003E4E3046FEF726FF69463046FEF78FFF93
:1019900001213046FEF7B5FF01214802FFF7D3FCD5
:1019A00001208DF830008DF831000B954FF4602048
:1019B000CDE90D0520798DF83C000BA92068FEF7D4
:1019C00041FD4FF44040FFF752FC002525E0FFE7C2
:1019D00001212020FFF7B7FC10A93046ADE7012117
:1019E0004020FFF7B0FC10A92548A6E70121802080
:1019F000FFF7A9FC10A923489FE701215046FFF7F4
:101A0000A2FC10A9204898E7A0686D1CEAB24378B0
:101A100001782068FEF796FDEDB22079A842F3D850
:101A200001212068FEF740FD01212068FEF732FD0C
:101A30002068FEF74CFD2068FEF74EFD0028FAD125
:101A40002068FEF750FD2068FEF752FD0028FAD10D
:101A500001212068FEF753FD12B0BDE8F08700EBCE
:101A600041008089704700000014014000F8FEBF6B
:101A700000100140000C014000DCFEBF08000240E5
:101A800000180140001C014000200140D0E9031271
:101A9000914203D1C169006A814201D0012070479F
:101AA0000020704700B50346FFF7F0FF00280FD075
:101AB000012083F8240003E093F82400012804D1D6
:101AC0001846FFF7E3FF0028F6D1002083F8240032
:101AD00000BD10B503460024FFF7D8FF78B1D969DF
:101AE000D86801440C79D969491CD961D969202980
:101AF00005D30021D9610168D96002F019FA2046A6
:101B000010BD10B50446FFF7C1FF002808D02046DD
:101B1000FFF7DFFF01462068BDE81040FFF7E3BD97
:101B200010BD10B50346FFF7B1FF002803D0BDE894
:101B300010401846E5E710BD70B504468068A269FC
:101B400010440171A069401CA061A06920280FD138
:101B5000012084F83500242002F0D6F9A16800267F
:101B6000086018B1A661A060002509E084F835601E
:101B700070BD601990F825102046FFF7DDFF6D1C41
:101B8000A06BA842F5D8A663F0E710B5044690F81C
:101B9000350068B1A06B102809D22068FFF7A7FDB7
:101BA000A26B04F125015054A06B401CA06310BD32
:101BB0002068FFF79CFDC1B22046BDE81040BBE79E
:101BC000D0E90112914203D141698069814201D07B
:101BD000012070470020704710B503460024FFF72E
:101BE000EFFF78B15969586801440C795969491C6B
:101BF00059615969202905D100215961016859604D
:101C000002F096F9204610BD2DE9F04116460F4628
:101C10000446FFF747FF0025A84614E0785D226AD6
:101C2000216911440871206A401C2062206A202822
:101C300008D3242002F068F92169086028B1C4F8AB
:101C4000208020616D1CB542E8D32046BDE8F041FC
:101C500067E713B5012201A9FFF7D6FF1CBDBBE75B
:101C6000AEE770B505460C46084603F081FA024619
:101C700021462846BDE87040C6E72DE9F04188B00E
:101C80000446DDE90E07109D0091ADF80600032023
:101C90008DF812008DF816000C21ADF80A10ADF881
:101CA000042001208DF81B0018218DF819704FF0C9
:101CB00000088DF813100426ADF80C80ADF808303C
:101CC0008DF817608DF81A505B4920685B4D5C4FAA
:101CD000401817D03602B04262D0B0F5744F5CD1D4
:101CE00001218803FFF72FFB01210420FFF72BFBC5
:101CF0007010ADF810002520ADF814608DF81800B4
:101D00002C6010E001214804FFF726FB012104208C
:101D1000FFF719FB0820ADF814002620ADF810607D
:101D20008DF818006C6004A93846FFF7CEF805A9B5
:101D30003846FFF7CAF884F835804546C4F838803D
:101D400084F82480C4F81880C4F81480242002F099
:101D5000DBF8A06025626060E561242002F0D4F821
:101D600020610121E0600846FFF7EDFA06A8FEF7C2
:101D7000FAFA69462068FFF7EDFB012240F226617E
:101D80002068FFF764FC012240F225512068FFF72C
:101D90005EFC01212068FFF750FC08B0BDE8F0812F
:101DA00001218804FFF7D8FA01210820FFF7CBFAB8
:101DB0004FF40060ADF814002720ADF810608DF8E6
:101DC0001800AC601F4D04A92846FFF77EF805A94E
:101DD0002846AEE770B5044640F22555006829460E
:101DE000FFF7ECFC012806D129462068FFF705FD26
:101DF0002046FFF7CAFE40F2266529462068FFF715
:101E0000DDFC01280ED129462068FFF7F6FC94F886
:101E10002400012803D02046BDE8704071E6002070
:101E200084F8240070BD05480068D3E70348406883
:101E3000D0E702488068CDE700BCFFBF2800002043
:101E400000080140000C0140810705D16421B0FB6E
:101E5000F1F201FB120149B950B100204FF4C871F1
:101E6000B0FBF1F201FB1200002800D00120704706
:101E70000120F3E7FE4B00B51868401C1860D87AC3
:101E8000401CC0B2D8723C282FD10021D972987A58
:101E9000401CC0B298723C2827D19972587A401CD5
:101EA000C0B25872182820D15972187A401C187282
:101EB0009879022805D19888FFF7C6FF08B101215B
:101EC00000E000219879EB4A491C125C11441A7A0F
:101ED00091420AD10121401CC0B2197298710D289B
:101EE00003D199719888401C988000BDE249086828
:101EF000401C08604868401C4860B0F57A7F02D1F9
:101F000000204860B6E7704710B5FEF7EBF9DB48F4
:101F10004FF47A710068B0FBF1F0B0F1807F0DD220
:101F200020F07F414FF0E020491E4161D44AF0216A
:101F300082F8141D0021816107210161BDE8104074
:101F40000420FEF750BAF0B50446002340F2B27503
:101F5000CC4ECD4F08E02846FFF776FF08B133445A
:101F600000E03B446D1CADB2A088A842F3D8A07934
:101F7000022805D9A088FFF767FF08B1012000E01B
:101F80000020BC4AA1790C32184432F8111040F2FA
:101F9000A3220844217A514300EBC111607AC0EBBF
:101FA0004012C2EB002001EB0011A07AC0EB001040
:101FB00001EB8000E17A0844F0BD10B5022901D898
:101FC0000C31C9B24B1C02EB410103EB4303052466
:101FD000B3FBF4F36422B0FBF2F21944014401EBC9
:101FE0009001891A4FF4C872B0FBF2F0084407213F
:101FF000401C90FBF1F201FB1200C0B210BD10B505
:1020000004468079022805D1A088FFF71DFF08B19A
:10201000012100E00021974BA0795B1EC25C1144B6
:10202000227A91420CD2022805D1A088FFF70CFF3A
:1020300008B1012000E00020A179C95C08442072A9
:10204000227AA179A088FFF7B8FFE0712046FFF758
:102050007AFFFFF7E7F9864894E80E0080E80E0063
:1020600010BD2DE9F34F89480D46B1FBF0F3A3EB0A
:10207000031000EB4000C0EB001001EBC0104FF468
:102080006161B0FBF1FC6FF0E0010CFB01F100EBD2
:1020900001103C21B0FBF1F6ACEB0C1000EB400062
:1020A000C0EB001005EBC0116FF0E000704301EBD6
:1020B0000010A6EB061100EB810A40F2B27403E0B7
:1020C00080B1A3F5B773641C601C80B2FFF7BCFE3F
:1020D0000120012BF4D2A0B2FFF7B6FE0121DFF8F8
:1020E00094B106E0A3F26D13EDE7022922D09B1A0A
:1020F000491C0BEB010203F1010812F8012C4245C7
:10210000F3D95B1CDAB262F30709A0B26CF30F29B2
:1021100060F30F07C9B266F3174961F317476AF313
:102120001F69FFF74AFF60F31F67009880E8A0026D
:10213000BDE8FC8F08B11D3BDAE71C3BD8E710B5C2
:1021400088B001214FF0C050FFF706F90120FEF7DB
:10215000A3FF0420FEF71BFB4AF2A554A04229D09E
:10216000FEF7ECFA0120FFF789F84120FFF70FF89E
:102170000028FAD04FF48070FFF791F80120FFF7A4
:1021800093F8FFF781F9FFF785F901210846FFF77A
:1021900029F9FFF779F9FFF72EF947F6FF70FFF7F6
:1021A0004EF9FFF771F9FFF72DF921460420FEF7EC
:1021B000E7FA07E0FFF76EF901210846FFF712F989
:1021C000FFF762F903208DF8000000208DF8010070
:1021D0008DF8020001208DF803006846FEF7C3F871
:1021E000FFF717F9014604A8FFF73BFF04AB93E89C
:1021F000070001AB83E8070001A8FFF700FF08B064
:1022000010BD10B5FFF780FE194802210A220172A5
:10221000032181714272082282720022C272C1714E
:1022200040F2E671818010BD13490A6810440A68C3
:102230008242FCD970474CE000BF00BF00BF00BF26
:1022400000BF00BF00BF00BF00BF00BF00BF00BF96
:1022500000BF00BF00BF00BF00BF00BF00BF00BF86
:1022600000BF00BF00BF00BF00BF00BF00BF0FE046
:1022700010010020668F00083400002000000020BC
:102280000FE000E00085E2018033E10180510100B0
:1022900000BF00BF00BF00BF00BF00BF00BF00BF46
:1022A00000BF00BF00BF00BF00BF00BF00BF00BF36
:1022B00000BF00BF00BF00BF00BF00BF00BF00BF26
:1022C00000BF00BF00BF00BF00BF00BF00BF00BF16
:1022D00000BF401EB0D2704710B50120FFF7F3F8E1
:1022E00008B1FFF7C7FD0120FFF7FBF8BDE810407C
:1022F000FFF7CAB83649374A0020096851F820303C
:1023000042F82030401C0228F8D370472DE9F041F4
:10231000314801682E4E7268891A4EF66022914249
:102320002DD30068706000222A4D3168104655F8A0
:10233000203051F82040A34204D1401C0228F6D39B
:10234000002A1CD0FEF743FB4024670507EB8420DE
:10235000FEF777FB641C402CF8D90024306855F850
:10236000241000EB8400FEF70AFC3520FEF73FFD49
:10237000641C032CF2D3BDE8F041FEF734BBBDE88A
:10238000F081FEF724FB4024650505EB8420FEF771
:1023900058FB641C402CF8D9104D0D4E00243068B9
:1023A00055F8241000EB8400FEF7E9FB3520FEF71A
:1023B0001EFD641C032CF2D3FEF715FB08480168D0
:1023C000084A01F4E06111430160BFF34F8FFEE75B
:1023D0003C0000201C010020340000208C8F0008ED
:1023E0000CED00E00400FA05FE48D0E900100844B6
:1023F0007047002803D0007B102801D000207047D0
:102400000120704700B50146FFF7F3FF002800D018
:10241000086900BD002803D0007B082801D00020F7
:1024200070470120704700B50146FFF7F3FF10B178
:10243000D1E9060100BD0020EB4900BD08B50F2021
:10244000009007230122E9A1EB4802F00DFDEA48C4
:1024500008BD70B50C4606000DD002F089FE401C88
:10246000236805469847040005D02A46314602F005
:10247000E9FE204670BD002070BD30B5D94ADF4D61
:10248000DF4BE04C083288B11360016801B1116084
:102490005460406800B1506000209060106898421D
:1024A00003D15068A04200D1956030BD82E8380069
:1024B00030BD70B5CB4E0446083619E0A0892568BA
:1024C000C0050AD4A06820B1FFF7F3FFA089C005BA
:1024D00003D4206908B171688847A089800503D4B6
:1024E000206A08B1716888477168204688472C4681
:1024F000002CE3D170BD2DE9F04192B04FF0000700
:102500000C0005464FF02E063B4610973CD0206845
:10251000D0B3694627E0226810441A5C342A1BD0E5
:102520000ADCA2F12B00092823D2DFE800F01522F3
:102530001517221515151500382A0DD006DC352A79
:102540000AD0362A08D0372A13D105E0392A03D019
:10255000452A01D0652A0CD1CA5400E0CE545B1C38
:102560003F2B06D22CB1A068D4F804C0C218624533
:10257000D1D38846CF54404610A905F099FD0F46A7
:1025800010990646884503D1002012B0BDE8F081BD
:102590009D4A9E4B30463946C5E9066706F0D8F994
:1025A00002D86FF000400DE00022994B30463946CA
:1025B00006F094F802D84FF0004003E03046394668
:1025C00006F032F868610820E860109AA168A2EB72
:1025D00008000844A0600120D7E770B514461D46E6
:1025E0000646894A894B2046294606F0B1F902D8A9
:1025F0006FF000400DE00022854B2046294606F092
:102600006DF802D84FF0004003E02046294606F05E
:102610000BF8706120462946C6E9064570BD714930
:1026200008314968084770B50446C0680D46C106C0
:102630001ED5C0051CD4284602F09AFD0646206926
:1026400002F096FD864205D82946206902F06CFD0D
:10265000206970BD634928460831FFF7FAFE05007E
:1026600006D0206908B1FFF7DAFF2846256170BD62
:10267000002070BD2DE9F04104001BD02268CAB1D2
:10268000636813B1A068984214D24FF00046B1427B
:1026900010D2A568491C6818834201D3501975E708
:1026A000216939B9B0F1804F06D3B04202D26FF040
:1026B000004602E0002069E74600236A00272BB1AC
:1026C000314610469847050012D00CE0A16930460B
:1026D000884705000CD0A2682168521C02F0B2FDA8
:1026E000E16920688847C4E90056A06828444DE79E
:1026F000E1692068884767602760DBE72DE9F047DC
:102700009846894623F0004621F0004705461446C6
:102710003346394606F01CF902D22846394601E014
:10272000204631466FF0330206F0D1FB06460F46D5
:10273000224643462846494606F032FA21F0004137
:1027400032463B4605F0CAFF02D80120BDE8F087BB
:102750000020FBE72DE9F043D0E906758BB08846F1
:1027600000241C21684602F0E4FD0020CDE90800A9
:102770004FF02E09B8F1000F5DD00FB1012000E03D
:10278000002045EA000121F000402249081AC00F4C
:1027900013D14800B0EB450F00D177B13A462B4634
:1027A0001DA1684602F060FB064608AA1CA1684607
:1027B00002F09CFC01280CD104E01AA1684602F04A
:1027C00053FB0CE0DDE908013A462B46FFF796FF84
:1027D00030B93A462B4615A1684602F045FB06463D
:1027E0001A2E27E0440000200000F87F25692E25DE
:1027F000692E2569000000003C010020A94C00085A
:10280000FD4B00085B4C00080000C0FFFFFFDF41EC
:102810000000E0C10000F07F25312E313567000057
:10282000256C67006E756C6C0000000025312E3140
:102830003767000003D300200BB0BDE8F083711CA4
:102840004046FFF717FF0028F6D06A462E2506E01F
:10285000115D494501D1055500E00155641CB442A4
:10286000F6D300210155D8F8080081190120C8F8D5
:102870000810E1E7034610B500200246995CA1F17B
:102880003004092C01D830380AE0A1F14104052CAC
:1028900001D8373804E0A1F16104052C08D8573875
:1028A0000844032A00D20001521C042AE6D310BDBA
:1028B000002010BD2DE9F84F8146D1F80880086846
:1028C0004FF0000ACDF800A0D1F800C000EB0804DA
:1028D000651C1CF80800641C0E465746222876D159
:1028E0000021706807E05C2B04D1521C82426AD23E
:1028F000491C641C641CA4EB0C02824202D22378A3
:10290000222BF0D1A4EB0C0282425CD22078222848
:1029100059D10CEB0800201A401A3169401C884735
:10292000070054D000973DE029785C2905D0009835
:102930006D1C00F8011B009034E00221601B01288F
:1029400041DB6878662814D008DC22281DD02F28A7
:102950001BD05C2819D0622835D108E06E280ED033
:1029600072280ED074280ED075282CD112E00822BF
:1029700000E00C22009800F8012B009011E00A22E0
:10298000F8E70D22F6E70922F4E7009A02F8010BB6
:10299000009206E06A462146284601F097F90100B8
:1029A00011D00D44A542BFD3009981F800A0102199
:1029B000C9E903173068201A401CB0600120BDE847
:1029C000F88F04E0FFE717B171693846884715B101
:1029D0003068281AB0600020F1E72DE9F0470A00BE
:1029E00006464FF0000402D01EB101461FE0002051
:1029F000ACE603211046FFF73DFE0028F8D0FEA10B
:102A000002F092FB5AE00C2827D006DC082824D0DC
:102A1000092822D00A2806D11FE00D281DD022281F
:102A20001BD05C2819D0202800D2641D491C0878CE
:102A30000028E8D1881B0719F91C1046FFF71AFE79
:102A4000051ED5D04FF022084FF0000985F8008010
:102A50002CB16C1C4FF05C0A28E0641CE6E73A4697
:102A60003146681C02F0EEFB23E01F2803D9222820
:102A700001D05C2830D104F801AB327850460C2AE2
:102A800023D006DC082A1ED0092A24D00A2A06D11F
:102A90001DE00D2A1DD0222A12D05C2A1CD0D7A1FD
:102AA000204602F0E1F9241D641C761C30780028D1
:102AB000DBD1E81980F8018080F80290012045E61A
:102AC00084F80080F0E7622006E0662004E06E20D3
:102AD00002E0722000E074202070E5E710B530B10C
:102AE000036823B1D0E90121914201D204E0002022
:102AF00010BD491C816020B1914202D25C5C202C47
:102B0000F7D99142F4D1491E816010BD2DE9F04101
:102B100007460026C8680C463546B0F57A7F77D25E
:102B2000401CE060002C73D0D4E9011088426FD2C1
:102B30002168095C7B296BD1401CA0602046FFF70F
:102B4000CDFFD4E90110884203D22268125C7D2AAD
:102B50004CD08842A0F10100A06059D204F11008C5
:102B6000404601F09AF8E8B3F6B1286045600546A2
:102B7000A068401CA0602046FFF7B0FF2146284611
:102B8000FFF798FE78B32046FFF7A8FF2869286270
:102B9000002028613CB3D4E90110884235D2216875
:102BA000095C3A2931D102E006463546E0E7401C8F
:102BB000A0602046FFF792FF2146284600F091F8DA
:102BC00088B12046FFF78AFFD4E90110884203D27A
:102BD0002168095C2C29C3D06268904215D2216813
:102BE000085C01E010E010E07D280ED1E068401E96
:102BF000E06006B175604020C7E90260A068401C33
:102C0000A0600120C2E403E016B13046FFF751FC9A
:102C10000020BBE42DE9F04107460026C8680C46B9
:102C20003546B0F57A7F5AD2401CE0602168A06832
:102C3000095C5B2953D1401CA0602046FFF74EFF82
:102C40004CB1D4E90110884203D22268125C5D2A9B
:102C500033D0884203D3A068401EA0603FE0401EEE
:102C600004F11008A060404601F017F890B30EB3CD
:102C7000286045600546A068401CA0602046FFF71C
:102C80002DFF2146284600F02CF828B32046FFF7F8
:102C900025FF0CB3D4E90110884203D22168095CF6
:102CA0002C29E0D06268904216D22168085C5D2829
:102CB00012D102E006463546DDE7E068401EE060DE
:102CC00006B175602020C7E90260A068401CA060C2
:102CD00001205BE4FFE716B13046FFF7EAFB002076
:102CE00054E470B50C0005465ED0216800295BD025
:102CF000A0686368021D9A4206D808440422AFF215
:102D0000DC4102F054FA78B3A0686268411D0126E4
:102D1000914206D82168052208443AA102F047FAF8
:102D200028B3A0686268011D914206D82168042278
:102D3000084436A102F03BFAE8B1D4E9010181422E
:102D400003D22268525C222A1DD0814220D22268FE
:102D5000525C2D2A02D0303A092A19D82146284639
:102D6000BDE87040FFF7C7BB0420E86006E0EE60F6
:102D7000A068401D04E002206E61E860A068001DAC
:102D8000A060012070BD21462846BDE8704091E555
:102D9000814203D22268525C5B2A07D0814203D26F
:102DA0002068405C7B2806D0002070BD2146284664
:102DB000BDE870402EE721462846BDE87040A5E6F4
:102DC0002DE9F04788B00F4606469A4615461C2165
:102DD000684602F0AEFA0F480024002E04604460FA
:102DE00067D08146EFB30096CDE90174D9E90212AC
:102DF000D9F8100004910FE022220000752530342C
:102E00007800000066616C7365000000747275657F
:102E10000000000044000020CDE9052009F1080071
:102E200000F03BFF5FEA00082DD000986F4608B124
:102E3000029808B100200CE00198042808D9032268
:102E4000F6A1009802F0B3F910B90298C01C0290E4
:102E50003846FFF743FE01464046FFF742FF78B190
:102E600000E010E0BAF1000F13D06846FFF736FE1D
:102E7000DDE90101814203D202990098405C40B132
:102E80004046FFF716FBDDE90110884209D20446EF
:102E90000AE01DB10299009808442860404608B035
:102EA00054E4081E00D0441E0DB130192860C9E951
:102EB00000640020F3E770B515460E46040008D004
:102EC00002F056F9411C2B4632462046BDE87040C0
:102ED00076E7002070BD00221146ECE700231A4679
:102EE0006EE72DE9F04785680C0003D0606918B1E2
:102EF000022602E0002029E40126711C2046FFF78B
:102F0000B9FB0028F7D07B2100F8011BE1684FF0E6
:102F10000A08491CE160616909B180F80080A06875
:102F20004FF0000930440927A06053E080B12046EB
:102F3000E168FFF79FFB0028DDD0002102E000F8E8
:102F4000017B491CE2688A42F9D8A0681044A0605D
:102F50002146286AFFF741FD0028CCD0204600F02A
:102F6000A7FE606908B1022600E00126314620462E
:102F7000FFF780FB0028BED03A2100F8011B6169F1
:102F800001B10770A06821463044A060284600F0D7
:102F900042F80028AFD0204600F08AFE606900B1F8
:102FA0000120296801B101214618711C2046FFF754
:102FB00061FB00289FD0296811B12C2100F8011B6A
:102FC000616909B100F8018B80F80090A068304475
:102FD000A0602D686069002DA8D110B1E168491C7E
:102FE00000E002212046FFF745FB00288AD06169F6
:102FF00041B1002102E000F8017B491CE268521E49
:103000008A42F8D87D21017080F80190E068401E66
:10301000E0600120ECE470B504000D4613D095B1DA
:10302000207B102846D008DC012817D0022820D0A9
:1030300004280AD0082806D124E020283ED04028C1
:1030400041D0802823D0002070BD05212846FFF7FD
:1030500011FB0028F8D0AFF6340107E0062128461E
:10306000FFF708FB0028EFD0AFF2682102F05CF810
:103070001EE005212846FFF7FDFA0028E4D0AFF254
:103080007421F3E72046BDE87040FFF763BB206979
:103090000028D9D002F06CF8401C064601462846AC
:1030A000FFF7E8FA0028CFD03246216902F0CAF8CB
:1030B000012070BD2069BDE870408EE42046BDE867
:1030C000704000F06ABE2046BDE8704009E7F0B5E8
:1030D00089B00F46064614462421684602F029F9B5
:1030E0004FF480752168284688470597CDE900058B
:1030F00094E8070006AB83E80700009888B36946A8
:103100003046FFF788FF40B3684600F0D1FDA26863
:1031100000263AB102990098491C904705001CD03E
:10312000009617E002982168401C8847050014D0DB
:10313000DDE90110401C814201D20A4601E0029AF9
:10314000521C2846009902F07DF802982E546168BE
:1031500000988847284609B0F0BD009808B161681A
:1031600088470020F7E72E4A0121B0E72C4A0021CA
:10317000ADE7F0B589B00C460646174624216846EF
:1031800002F0D7F8002C01DA0020E4E7244D2046B5
:103190002968884700900028DDD00020CDE9014053
:1031A000CDE90407284606AB07C883E8070069464F
:1031B0003046FFF730FF00280098CCD16968884777
:1031C000E2E7F0B589B00D4606461F4614462421B5
:1031D000684602F0AEF8002C11DB85B100200095A6
:1031E000CDE9014001200E49CDE9040707C906AB2E
:1031F00083E8070069463046FFF70DFFABE7002084
:10320000A9E701004FF0000001D0896803E0002029
:1032100070470968401C0029FBD17047EFBBBF0015
:103220004C000020002901DA0020704700F0FFBDAB
:103230002DE9F0418846A0B3B8F1000F32D085687F
:103240000AB90AE02D6865B3296A51B3404602F015
:1032500097F80028F6D120E02D6815B32E6A5FEAB2
:103260000804F9D0002EF7D0B44218D002E098B18B
:10327000641C761C207801F0EAFD0746307801F0E6
:10328000E6FD87422078F2D001F0E1FD0446307877
:1032900001F0DDFD8442DFD11DB1286A08B1284666
:1032A000B0E4FFE70020ADE40022C1E70122BFE760
:1032B00010B5FFF7F9FF002800D0012010BD70B550
:1032C000050012D0084600F0E8FC04000DD02822CA
:1032D000294601F0FCFF00202062E168606041F4B3
:1032E0008071E1602060204670BD002070BD11B18A
:1032F00008B1884201D10020704782683AB1526813
:103300001AB111604A608068416001207047816095
:103310000020C1E90001F8E7E9E72DE9F0410700E5
:103320000698984614460D4603D015B10CB1A74235
:1033300001D1002066E418B1E06840F4007608E0AE
:1033400019462846FFF785F8051EF3D0E06820F4FB
:103350000076A089800504D4206A10B1D8F8041042
:103360008847E660214638462562BDE8F041BEE761
:1033700008B500230093F94BFFF7CFFF08BD08B550
:1033800001230093F54BFFF7C8FF08BD10B50A46AF
:10339000040008D0F1491046FFF791FF014620468E
:1033A000BDE81040A3E7002010BD38B50C4605006D
:1033B0000DD064B1E9491046FFF781FF02460020B5
:1033C0000090E64B21462846FFF7A7FF38BD0020B6
:1033D00038BD10B5E14800F060FC002801D00421A0
:1033E000C16010BDF8B50C460546FFF7F2FF064672
:1033F00000200090D94B324621462846FFF78DFF2A
:103400000028304602D1FFF754F80020F8BD10B56F
:10341000D24800F042FC002801D00221C16010BD5A
:10342000F8B50C460546FFF7F2FF0646002000906F
:10343000CA4B324621462846FFF76FFF0028304628
:1034400002D1FFF736F80020F8BD10B5C34800F0F0
:1034500024FC002801D00121C16010BDF8B50C4644
:103460000546FFF7F2FF064600200090BB4B3246B0
:1034700021462846FFF751FF0028304602D1FFF7CA
:1034800018F80020F8BD10B50446B44800F005FC5B
:10349000002804D00CB1022100E00121C16010BD60
:1034A000F8B505460C461046FFF7EDFF064600202E
:1034B0000090AA4B324621462846FFF72EFF0028EF
:1034C000304602D1FEF7F5FF0020F8BD70B5054685
:1034D0000E46A24800F0E1FB04001CD00820E0608A
:1034E000C4E906569E4A9F4B2846314605F030FAFD
:1034F00002D86FF000400DE000229B4B2846314679
:1035000005F0ECF802D84FF0004003E028463146C1
:1035100005F08AF86061204670BDF8B50C46054696
:1035200010461946FFF7D2FF0646002000908B4B4D
:10353000324621462846FFF7F0FE0028304602D1E9
:10354000FEF7B7FF0020F8BD70B50546834800F0D0
:10355000A4FB040007D01020E06080492846FEF755
:1035600078FF206108B1204670BD2046FEF7A1FF1C
:10357000002070BDF8B505460C461046FFF7E4FF85
:10358000064600200090754B324621462846FFF73C
:10359000C4FE0028304602D1FEF78BFF0020F8BDA4
:1035A00070B505466D4800F078FB040007D0802018
:1035B000E0606A492846FEF74CFF206108B12046CA
:1035C00070BD2046FEF775FF002070BDF8B50546BA
:1035D0000C461046FFF7E4FF0646002000905F4BC4
:1035E000324621462846FFF798FE0028304602D191
:1035F000FEF75FFF0020F8BD10B5584800F04DFB06
:10360000002801D04021C16010BDF8B50C46054628
:10361000FFF7F2FF064600200090504B324621464D
:103620002846FFF77AFE0028304602D1FEF741FF18
:103630000020F8BD10B5494800F02FFB002801D04C
:103640002021C16010BDF8B50C460546FFF7F2FF1A
:10365000064600200090414B324621462846FFF79F
:103660005CFE0028304602D1FEF723FF0020F8BDA3
:1036700080B179B182688A4202D0D1E900231A6010
:103680000A680AB14B68536082688A4204D10A68AA
:10369000826005E000207047086808B948685060FB
:1036A0000020486008600846704710B504460029AD
:1036B00001DA002010BD00F0BAFB01462046BDE84B
:1036C0001040D5E710B5FFF7F0FFBDE81040FEF75A
:1036D000F0BE10B50446FFF7E7FD01462046BDE801
:1036E0001040C5E710B50446FFF7E0FD014620464F
:1036F000BDE81040BCE710B5FFF7EBFFBDE8104098
:10370000FEF7D7BE10B5FFF7EDFFBDE81040FEF79E
:10371000D0BE70B514460546002901DA002070BD00
:1037200000F085FB40B12060416861604460A96899
:10373000814206D1AC6006E021462846BDE87040D3
:10374000D5E560680460012070BD10B570B16AB144
:1037500061B18A420CD1012010BD00004C00002054
:103760000000C0FFFFFFDF410000E0C10020F3E7E1
:103770000B6813604C68546003B15A6083688B42D5
:1037800005D15C689C4200D15260826006E05368BB
:1037900003B11A6013680BB98068426000200860AA
:1037A00048600846FEF785FED5E770B51446054625
:1037B000002901DA002070BD00F039FB01462246E5
:1037C0002846BDE87040C0E72DE9F0411E461400D0
:1037D0000D4607461BD0D5B1A089800503D4206AC9
:1037E00008B1FEF71CFFFE492846FEF732FE2062B4
:1037F000E068324620F40070E06029463846FFF762
:1038000017FD014622463846BDE8F0419DE70020FD
:1038100046E50023D8E70123D6E710B50446F04873
:1038200000F03BFA002897D04FF48871C0E90314E8
:1038300092E710B50446EA4800F02FFA00288BD032
:103840004FF4A071C0E9024186E710B50446E44890
:1038500000F023FA002803D04FF49071C0E9024130
:103860007AE72DE9F0474FF000055FEA010881464D
:103870002C462E4606D4B9F1000F03D0FFF7DAFE2E
:1038800007460FE00020BDE8F08759F8250004F056
:10389000FAFEFFF71BFE04000CD07DB134606660B9
:1038A00026466D1C27B14545EFD3B86800B144608A
:1038B0003846E8E73846FEF7FCFDE3E7BC60EFE793
:1038C0002DE9F0474FF000055FEA010881462C46DC
:1038D0002E4606D4B9F1000F03D0FFF7ABFE074622
:1038E0000EE00020CFE759F8250005F043FAFFF776
:1038F000EDFD04000CD07DB13460666026466D1C81
:1039000027B14545EFD3B86800B144603846BAE7FF
:103910003846FEF7CEFDE4E7BC60EFE72DE9F0475F
:103920004FF000045FEA010881462546264606D48A
:10393000B9F1000F03D0FFF77DFE07460FE000202E
:10394000A1E709EBC400D0E900211046FFF7BEFD56
:1039500005000CD07CB135606E602E46641C27B12A
:103960004445EED3B86800B1456038468BE7384629
:10397000FEF79FFDE3E7BD60EFE72DE9F0474FF06D
:1039800000045FEA010881462546264606D4B9F1BF
:10399000000F03D0FFF74EFE07460CE0002072E751
:1039A00059F82400FFF7D0FD05000CD07CB135603C
:1039B0006E602E46641C27B14445F1D3B86800B14F
:1039C000456038465FE73846FEF773FDE6E7BD60C1
:1039D000EFE72DE9F0414FF0000688460700344636
:1039E0003DD07F4800F059F9050038D0F86820F440
:1039F0008070E86078696861D7E90601C5E9060169
:103A0000386920B17649FEF724FD286120B3386A71
:103A100038B1B989890502D47149FEF71AFD2862C7
:103A2000D0B1B8F1000F14D0BF680CE001213846C6
:103A3000FFF7CFFF04000ED016B13460666000E0DF
:103A4000AC603F682646002FF0D115B1A86800B1E0
:103A50004460284624E415B12846FEF72AFD0020DC
:103A60001EE401B582B00298009000281CD014E03A
:103A700020281AD006DC092817D00A2815D00D28CE
:103A800004D112E0222836D02F2811D0009901F855
:103A9000010B02980091401C0290029908780028BE
:103AA000E6D10099002008700EBD491C0291F4E790
:103AB00048782F2805D02A28F7D1891C084602917A
:103AC00012E0891C02E00A2805D0491C02910878FE
:103AD0000028F8D1E5E7481C0BE02A2902D14178FB
:103AE0002F2905D0401C029001780029F5D1D8E794
:103AF000801C0290D1E7694602A800F0A3F9CCE748
:103B0000002804D0007B10F0FF0F01D00020704788
:103B100001207047002803D0007B012800D000203E
:103B20007047002803D0007B022801D00020704796
:103B300001207047002803D0007B800700D00120BF
:103B40007047002803D0007B042801D00020704774
:103B500001207047002803D0007B202801D00020DE
:103B6000704701207047002803D0007B402801D017
:103B70000020704701207047002803D0007B802878
:103B800001D000207047012070472DE9F041164612
:103B90000F4605007CD0002F7AD0287B397B8842E5
:103BA00076D110280FD008DC01280CD002280AD0CA
:103BB000042808D008286BD105E0202803D040282D
:103BC00001D0802864D1BD4260D010281BD00BDC0E
:103BD00001285BD0022859D0042857D0082801E0DA
:103BE0004C00002054D106E0202814D0402824D0D6
:103BF00080284DD107E0D7E90623D5E90601FEF775
:103C00007DFD78BB04E6286968B3396959B301F0D2
:103C1000B7FB38B33CE0AC68BD6808E032462946E3
:103C20002046FFF7B2FF0028ECD024682D680CB1C5
:103C3000002DF3D1AC422BD128E0AC680DE0324628
:103C40003846216AFFF7F4FA010021D032462046B7
:103C5000FFF79BFF0028D5D02468002CEFD11FB1BF
:103C6000BC6811E012E013E000240DE03246284663
:103C7000216AFFF7DDFA01000AD032462046FFF73D
:103C800084FF0028BED02468002CEFD10120BFE5BE
:103C90000020BDE582490968084710B50168282061
:103CA0008847040002D0282101F043FB204653E559
:103CB00010B5040009D02068002806D0A168084487
:103CC00001F056FAA1680844A06045E52DE9F047E7
:103CD00007460026C81B1446894606285BDBB81C2D
:103CE000FEF7C8FD0546A0F55C404FF480618842B0
:103CF00051D3A5F558408A4650451AD2B81DA9EBB4
:103D000000014FF00C08062945DB01785C2942D1FF
:103D1000417875293FD1801CFEF7ACFDA0F55C41D0
:103D2000514538D2C5F3090161F39F2000F5803079
:103D300002E04FF006082846802801D2012210E058
:103D4000B0F5006F02D20222C0260AE0B0F5803F33
:103D500002D20322E02604E0B0F5881F1BD2042221
:103D6000F026511E07E000F0BF03256843F08003F2
:103D700080096B54491E11F0FF01F4D1012A01D9C9
:103D8000304301E000F07F00216808702068104493
:103D90002060404677E5002075E52DE9F041856813
:103DA0000C000FD001212046FEF764FC00280AD049
:103DB0005B210170A068401CA060E068401C0027E7
:103DC000E06024E0002023E521462846FFF723F9A0
:103DD0000028F8D02046FFF76BFF2868B0B1606973
:103DE00008B1022600E00126711C2046FEF742FCC5
:103DF0000028E8D02C2100F8011B616911B12021B5
:103E000000F8011B0770A0683044A0602D68002DE9
:103E1000DAD102212046FEF72DFC0028D3D05D2107
:103E200001704770E068401EE0600120F0E4002867
:103E300007D0806801E00068491E002801D00029F1
:103E4000F9D1704702680B6812781A701DE00B6890
:103E50001A7003681A78222A02D05C2A15D109E068
:103E60000B6822221A700268521C02600868401C0B
:103E7000086070475A78222A07D10B685A70026886
:103E8000521C02600A68521C0A600268521C0260DE
:103E90000A68521C0A6002681278002AD7D170475B
:103EA0004C000020284809E042685AB14A684AB1EB
:103EB00082688B681A448260096801600168002981
:103EC000F2D170470846F9E702461F4805E041680D
:103ED00011B18168914203D200680028F7D111E046
:103EE00080B100214160036881188B4208D0012312
:103EF0004B6083689B1A8B6003680B608260016073
:103F0000103070470020704710B5010700D0012124
:103F1000103001EB101004012046FFF7D5FF0028F8
:103F200005D1FFF7BFFF2046BDE81040CCE710BD2C
:103F3000012140F80C1C7047034801220021530363
:103F400080E81E0070470000600100201CB5FFF7EC
:103F5000F3FF04480090044801906846FEF78DFA8C
:103F60001CBD0000093F0008313F0008002800DCAC
:103F70004042704710B500231A4603E030F8124063
:103F8000521C23448A42F9D3B3FBF1F080B210BD36
:103F90002DE9F0478A46064604F08CFB0446FC48AF
:103FA0000D46B0F80A80A8EB060004F06CFBDFF8C1
:103FB000E49300224B4604F0CDFB22462B4604F04E
:103FC0009FF906460F46504604F074FB04460D4622
:103FD000A8EB0A0004F057FB00224B4604F0BAFBA2
:103FE0002B46224604F08CF93B46324604F088F911
:103FF000E94AEA4B04F084F9E94AEA4B03F046FB4C
:104000000022E94B04F0C0F802460B46E748E849B5
:1040100004F076F9E74AE84B04F0B6F8BDE8F0475B
:10402000E64AE74B04F0B0B810B5FFF7B1FFBDE8C2
:1040300010400022E34B04F08DBB70B5E24CE34E20
:10404000054620803088294680B2FFF7A1FFC4E9E9
:1040500002013088294680B2FFF7E6FFC4E9040177
:1040600070BDCB4A5062DA48918100689062704717
:1040700070B5C74800213830FDF7F1FCC44CD24A76
:1040800000256169803A22F81100491C61614029CC
:1040900000D16561A069401CA061402823D9CA48AD
:1040A0004FF04001A0F18000FFF764FF2189401A22
:1040B000FFF75CFFA289C649904203DD6561A561F7
:1040C0000868A0620868A26A801A626A904211D9E0
:1040D0006561A5610868A062BB4840218038FFF790
:1040E00049FF00B270BD05D1B74840218038FFF7C5
:1040F00041FF20814FF0FF3070BD2DE9F05FA44CEF
:104100002078002871D02079DFF8BC92042603279C
:10411000B04D4FF0020809F1180A4FF4616B062800
:1041200063D2DFE800F0032E555B6374607810B350
:10413000D9E9040100229C4B04F00AFC13D229683F
:10414000DAF80000081A584502D384F8048000E029
:1041500026710F2141F28830FFF783FF40219E48EE
:10416000FCF71DFF05E027710A2141F65830FFF7E3
:1041700078FF202120E0012020710F2141F28830BA
:10418000F5E7FFF775FF401C59D0D9E9040100227B
:10419000854B04F0DDFB14D22968DAF80000081A18
:1041A000584502D384F8048000E026710F2141F2C3
:1041B0008830FFF756FF4021BDE8F05F8648FCF7E6
:1041C000EEBE2771BDE8F05F0A2141F6583048E79E
:1041D000FFF74EFF401C32D027710DE0FFF748FF7C
:1041E000411C2CD079490860DFE728E0FFF740FF49
:1041F000401C24D0052020710A2141F65830FFF7D9
:1042000030FFBDE8F05F40217348FCF7CABEFFF7FE
:104210002FFF411C13D06C492CCD183180B281E89E
:104220002C00FFF70AFF607818B920216A48FCF7D4
:10423000B8FE206900B18047002020712070BDE8E1
:10424000F09F5348017809B10020704701210170A7
:1042500000218171012070474D48017809B100208B
:104260007047012101708171084670474849086113
:1042700070471822544901F02AB810B5564A444CE8
:1042800010B101280AD010E00020A07020706078E2
:1042900058B920211046FCF784FE06E00120A070EA
:1042A000207020211046FCF77AFEA07810BD384916
:1042B00008B1012800D1C870C8787047344908B1E6
:1042C000012800D14870487870473148007870471D
:1042D0002DE9F0412E4800213830FDF7C0FB2C4C71
:1042E00000253B4ED4E90C23801845EB0301C4E9BB
:1042F0000C01226A521C22623368E769DB1BB3F5AA
:104300007A7F1AD3002300F02BFD80B2FFF795FED1
:104310003068E0612F4A2C480ECA183080E80E0041
:1043200000212562C4E90C112069002805D0E1783C
:10433000002902D0BDE8F0410047BDE8F0812DE939
:10434000F041134C20780028F7D06079224E0225E6
:1043500041F2883778B1012841D002284ED0032895
:10436000EBD1FFF785FE411CE7D01849086000201B
:1043700060712070E1E7607880BB20213046FCF757
:104380000EFE012060713846BDE8F0410F2168E65D
:104390005800002000408F40223C2EC01AAFBA3D8A
:1043A00078F1ED0BCC6FF33F0000F03F969ABFC45D
:1043B000761144427F911473C02392BF070161B705
:1043C000C85D71BF0030A140E02100201C01002029
:1043D00034000020100100200008014003E0FFF736
:1043E00047FE401CA9D065710F213846FFF739FE02
:1043F0003046BDE8F0414021FCF7D1BDFFF738FE63
:10440000401C9AD0032060710A2141F65830FFF712
:1044100028FE3046BDE8F0414021FCF7C2BD38B56A
:104420002448FDF74BFA01210420FCF78CFF1020F3
:104430008DF8030002208DF8020020201E4CADF8FC
:10444000000069462046FCF740FD4021ADF8001011
:1044500069462046FCF739FD20212046FCF7A1FDE6
:1044600040212046FCF79DFD124938394978002942
:1044700003D020212046FCF792FD38BD10B5012164
:104480000C48FDF7ECFA4FF6FF7101EA40010948CC
:1044900038384181817811B1BDE8104018E7807942
:1044A00020B1012805D1BDE8104048E7BDE8104023
:1044B00023E610BD900000200008014010B5002345
:1044C0008022F849FEF77DFEF649F748FDF7C9FB63
:1044D000BDE81040F5A1F448FDF7C3BB30B58DB081
:1044E000FFF78AF8F24D044600202946FEF7EEFF5A
:1044F0000246F0A12046FEF73BFF00202946FEF7CA
:10450000E5FF0246ECA12046FEF732FF6846FFF7C2
:10451000B0FE1822694606A800F0D9FEBDF81800C2
:1045200004F0C8F8FEF7D2FF0246E5A12046FEF7E8
:104530001FFF6846FFF79DFE1822694606A800F097
:10454000C6FEDDE90801FEF7C1FF0246DDA12046F7
:10455000FEF70EFF6846FFF78CFE1822694606A894
:1045600000F0B5FEDDE90A01FEF7B0FF0246D6A174
:104570002046FEF7FDFE684600F032FB009804F08E
:1045800099F8FEF7A3FF0246D1A12046FEF7F0FE00
:10459000684600F025FB019804F08CF8FEF796FFC2
:1045A0000246CDA12046FEF7E3FE2046FFF786FF38
:1045B0000DB02046BDE83040FDF77BBF70B5054625
:1045C000FFF71AF804460020C549FEF77FFF0246B0
:1045D000B8A12046FEF7CCFE284604F06BF8FEF7A3
:1045E00075FF0246BFA12046FEF7C2FE2046FFF738
:1045F00065FF2046BDE87040FDF75BBFF0B58DB0AC
:104600000646FEF7F9FF0446AAA13046FEF74CFE27
:10461000A8B14769384604F04DF8FEF757FF024647
:10462000A4A12046FEF7A4FEAD4D0C2F72D2DFE808
:1046300007F00B1121727597AEBEC8D756FA204607
:10464000FDF737FF042017E1A7A0FEF77DFF024624
:10465000A9A15BE0AFF27B10FFF708FEFFF7F1FDC9
:10466000002879D10146FEF731FF024692A120468B
:10467000FEF77EFE6846FFF7FCFD1822694606A895
:1046800000F025FEBDF8180004F014F8FEF71EFF38
:1046900002468BA12046FEF76BFE6846FFF7E9FD58
:1046A0001822694606A800F012FEDDE90801FEF7AF
:1046B0000DFF024683A12046FEF75AFE6846FFF72B
:1046C000D8FD1822694606A800F001FEDDE90A01BE
:1046D000FEF7FCFE02467CA12046FEF749FE684636
:1046E00000F07EFA009803F0E5FFFEF7EFFE0246C9
:1046F00077A12046FEF73CFE684600F071FA01986B
:1047000003F0D8FFFEF7E2FE024673A12046FEF753
:104710002FFE9BE0A8E0FFF79FFD45E078A1304623
:10472000FEF7C2FD00287DD0016977A000F028FEC9
:1047300098B900200146FEF7C9FE02465EA1204658
:10474000FEF716FE72480168724A01F4E0611143F7
:104750000160BFF34F8FFEE77BE0002029463AE07F
:1047600067A13046FEF7A0FD0028DCD001696AA0F1
:1047700000F006FE0028F0D10146FEF7A7FE024633
:104780004DA12046FEF7F4FDFDF7FBFD5EE0AFF224
:10479000B320FFF76BFD48A13046FEF785FD0028EA
:1047A00066D04069FFF769FD03F084FF13E042A182
:1047B0003046FEF779FD00285AD04069FFF777FDB3
:1047C000F2E73DA13046FEF76FFD002850D040696A
:1047D000FFF774FDE8E7FEF779FE024636A195E79C
:1047E0004FA13046FEF760FDE0B1808AADF80400CD
:1047F0004CA13046FEF758FDA0B1007D8DF80600B3
:1048000049A13046FEF750FD60B1007D8DF80800EB
:1048100046A13046FEF748FD20B1007D8DF8090025
:1048200043A101E024E01AE03046FEF73DFDF8B177
:10483000007D8DF80A003FA13046FEF735FDB8B186
:10484000007D8DF80B006846FDF7D9FB2046FFF789
:1048500035FE0DB02046BDE8F040FDF72ABE00F061
:104860008EF900201249B6E70320FFF7A7FEF0E714
:104870002046FDF71EFE02200DB0BDE8F0409DE68B
:1048800010B5FEF728FB040006D0FFF7B7FE204660
:10489000BDE81040FDF70DBEFDF70BFEBDE8104072
:1048A00001208BE604220020C80000200D0A000031
:1048B0000000F03F636D64007374617475730000F1
:1048C0007261770061697200626C6F6F6400000052
:1048D00074656D700000000068756D69000000006F
:1048E0000000F0BF6572720056455220302E302E07
:1048F0003120414C5048410076657273696F6E00FB
:10490000636F6E6669726E007265737461727400B3
:104910000CED00E00400FA056572617365000000AB
:10492000797200006D6F6E0064617900687200003A
:104930006D696E00736563002DE9F0410026324D0C
:10494000324F37E030480830FDF789F904460A282D
:1049500003D0AE707B2C0AD010E0A878401CC0B207
:10496000A87005280AD16E702E706E6022E028783B
:1049700010B9012169706E60401C2870687858B1C8
:1049800068683C54401C68607F2805D10020FFF710
:1049900015FE6E702E706E607D2C0BD12878401E37
:1049A00010F0FF00287005D16E7068683E541748FB
:1049B000FFF766FF14480830FDF752F90028C1D10F
:1049C000BDE8F081B8E73EB500240F484FF4165516
:1049D0000094019423462246294608300294FDF7AC
:1049E0004CF909480023009401941A4629460830DE
:1049F0000294FDF742F903B00348BDE8304004A13A
:104A00000830FDF72EB90000C0000020042200206D
:104A10004843303620446562756720537461727470
:104A20002E2E2E2057616974696E6720666F722082
:104A300061204A534F4E20537472696E672066722C
:104A40006F6D205553415254322E2E2E0D0A000008
:104A500008B51020ADF8000048208DF80300694625
:104A60006348FCF732FA08BD08B51020ADF8000025
:104A700003218DF802108DF8030069465C48FCF7AD
:104A800024FA08BD10B5FFF7EFFF594C102120465E
:104A9000FCF787FA1420FDF7C7FB10212046FCF72E
:104AA0007EFABDE810401E20FDF7C5BB70B500249E
:104AB000FFF7CEFF4E4D04E0641CE4B20120FDF789
:104AC000BAFB10212846FCF756FA10B1642CF3D338
:104AD0000FE0642C0DD2002404E0641CE4B2012039
:104AE000FDF7A9FB10212846FCF745FA18B1642C04
:104AF00004D3012070BD642CEFD3FAE7002070BD11
:104B000070B500243A4D04E0641CE4B20120FDF7C6
:104B100092FB10212846FCF72EFA012801D1642CC3
:104B2000F2D3002404E0641CE4B20120FDF783FB0F
:104B300010212846FCF71FFA08B9642CF3D328206B
:104B4000FDF779FB2846BDE870401021FCF713BA49
:104B500070B5002004464006050EFFF7D1FF641C27
:104B60002843E4B2082CF6D370BD10B5012104200F
:104B7000FCF7E9FBFFF786FFBDE8104096E77CB540
:104B8000FFF780FFFFF792FF00281AD100246D463F
:104B9000FFF7DEFF2855641CE4B2052CF8D39DF81E
:104BA00000109DF801009DF803300A189DF80200DE
:104BB00003441A449DF804309A4202D10D4AC2E9D6
:104BC00000017CBD0C490A680A48001F0368D21A1C
:104BD0004EF660239A4202D909680160CFE7704718
:104BE0000449091FD1E90121C0E9002170470000F3
:104BF00000080140080100203400002070B506467E
:104C000000F00AFC056806F10B0020F00704B4422E
:104C10009CBF002070BD2B466A68BAB11068A042E4
:104C200010D304F1080188423CBF5068586007D394
:104C30005168101941601168091B016058601460C7
:104C4000101D70BD13465268002AE7D12146284640
:104C500000F0EAFB0028DED170BD70B50446051FE8
:104C600000F0DAFB0068002C14BF446870BD002C13
:104C700018BFAC423CBF20466468F8D301680A18EC
:104C8000AA4218BF456003D12A6805461144016055
:104C900028684119A1421CBF6C6070BD61686960E1
:104CA00021680844286070BD70B50D460646041F93
:104CB00000F0B2FBD0F800C0C5B1E6B105F10B00C1
:104CC00020F00703AB423CBF002070BD2068984233
:104CD00038BFDCF8042013D3C11A08292FD3E018F9
:104CE00040F8041B2360FFF7B8FF28E03046FFF7C9
:104CF000B4FF002070BD2846BDE87040FFF77EBFBE
:104D0000002A18BFA2423CBF94465268F8D301194A
:104D1000914216D111680844984212D3C11A082949
:104D20003CBF2060506808D35168E018416021689A
:104D300012681144C91A01602360CCF80400201DD8
:104D400070BD181FFFF75AFF050007D021680A1F22
:104D5000211D00F0BCFA201DFFF77FFF284670BD23
:104D600053EA020C00F069802DE9F04B4FF0000689
:104D7000002B1FBFB3FA83F503FA05F424FA05F6F6
:104D80005E4012BF1643B2FA82F502FA05F4C5F18D
:104D900020051EBF22FA05FC44EA0C04203556EA21
:104DA000044C4FEA144418BF641C4FF000084FF045
:104DB0000009904271EB030C39D3002919BFB1FAF5
:104DC00081F701FA07F6B0FA80F700FA07F6C7F1A3
:104DD00020071EBF20FA07FC46EA0C062037B6FB68
:104DE000F4FCA7EB0507103F07F01F0BCBF12006E3
:104DF0000CFA0BFB2CFA06F644BFB3460026202F14
:104E0000A4BF5E464FF0000B5BEA060C08BF4FF0F4
:104E1000010B19EB0B09ABFB027C48EB0608C01B2E
:104E200006FB02CC0BFB03CC71EB0C01C1E70B467C
:104E3000024641464846BDE8F08B13B54FF00000EE
:104E40004FF00001AFF30080BDE81C40704710B583
:104E5000044600F0D9FA0068005DC00602D504F1EE
:104E6000200010BD204610BD0FB41CB5084B06AA8B
:104E70007B4469460090059800F099FD04460020A7
:104E8000694600F0A7FD20461CBC5DF814FB00003D
:104E9000610B000070B5044685690068C10601D544
:104EA000302600E02026C00707D070BDD4E90121DC
:104EB00030469047206A401C20626D1EF6D570BDBA
:104EC00070B5044685690078C00707D170BDD4E984
:104ED000012120209047206A401C20626D1EF6D5DB
:104EE00070BD00002DE9F0410646002410687529C8
:104EF000314616A510D0AFF30080002802DA4042F8
:104F000013A507E031688A0701D512A502E0490719
:104F100004D511A5012401E0AFF3008000210A228D
:104F200006F1240709E0B0FBF2FCB0FBF2F302FB50
:104F30001C00303078541846491C0028F3D1234611
:104F40002A463046BDE8F04100F0C3BA0000000038
:104F50002D0000002B0000002000000070B504466A
:104F60000D4621461068AFF300802188090502D55F
:104F70000F4A7A4402E00E4A7A440E32002104F1CC
:104F8000240305E000F00F060009965D5E54491CFD
:104F90000028F7D120780023000704D5702D02D017
:104FA00009B1022311322046BDE8704000F091BAE9
:104FB000464000002DE9F05F894604464FF0000AA4
:104FC000DFF824B1FB44C0F820A02046E168884700
:104FD00000287DD0252806D0D4E901219047206AF9
:104FE000401C2062F1E700255F462046E1688847C3
:104FF0002028064607DB312E05D2B81910F8200C00
:1050000008B10543F1E7A80701D525F00405C4F868
:105010001CA00027C4F818A02A2E09D0304602F0A0
:10502000C8FA38B304EB8708303EC8F8186019E0B6
:1050300059F8041B204604EB87029161E168884718
:10504000012F064618D1E069002820DA25F0200556
:105050001DE0D8F8180000EB800006EB4000303867
:10506000C8F818002046E1688847064602F0A1FA11
:105070000028EED1012F0AD02E2E08D12046E1685B
:1050800088477F1C0646022F45F02005C4DBA06937
:10509000002803DA404245F00105A061E80701D08D
:1050A00025F01005A6B1A6F14100192802D8203636
:1050B00045F400654A463146204625604D46FBF7DB
:1050C00071F860B1012807D0ED1D25F0070000E060
:1050D00007E000F1080978E705F1040975E73046B3
:1050E0007AE7206ABDE8F09F1C4000000FB400B5CD
:1050F0008DB010A9099000910B904FF0FF300A90ED
:1051000000200C90064878440690064878446A4689
:1051100007900F9909A800F0E5FE0DB05DF814FBAB
:10512000FB0D0000130E000040EA0103024630B5FB
:105130009B0710D14FF0013400E008C208C91D1BC5
:105140009D4315EAC41FF8D013F0FF0102F8011BBC
:105150000DD01B0AF8E711F8013B002B02F8013BC8
:1051600005D011F8013B002B02F8013BF3D130BD13
:1051700010B5431C02E010F8011B71B18107FAD190
:105180004FF0013202C88C1A8C4314EAC211F9D0D4
:10519000C01A0A0603D0C01E10BDC01A10BD0A04F2
:1051A00001D0801E10BD0902FCD0401E10BD40EA97
:1051B000010370B59B072ED14FF00136042A2AD384
:1051C00008C810C99D1B9D43121F15EAC61517D0AC
:1051D000D8B2E1B2401A50EA056110D198B2A1B23A
:1051E000401A50EA05410AD123F07F4024F07F4164
:1051F000401A50EA052102D1180EA0EB146070BDD0
:10520000A342DBD018BA21BA884201D9012070BD6F
:105210004FF0FF3070BD0AB9002070BD10F8013B9F
:1052200011F8014B63B1A3420AD1521E08D010F805
:10523000013B11F8014B1BB1A34201D1521EEDD12C
:10524000181B70BD032A40F2308010F0030C00F0F0
:10525000158011F8013BBCF1020F624498BF11F8B0
:1052600001CB00F8013B38BF11F8013BA2F1040269
:1052700098BF00F801CB38BF00F8013B11F00303E1
:1052800000F02580083AC0F0088051F8043B083A45
:1052900051F804CBA0E80810F5E7121D5CBF51F8E7
:1052A000043B40F8043BAFF30080D20724BF11F861
:1052B000013B11F801CB48BF11F8012B24BF00F8C6
:1052C000013B00F801CB48BF00F8012B704710B537
:1052D000203AC0F00B80B1E81850203AA0E81850EE
:1052E000B1E81850A0E81850BFF4F5AF5FEA027CAF
:1052F00024BFB1E81850A0E8185044BF18C918C01E
:10530000BDE810405FEA827C24BF51F8043B40F8BE
:10531000043B08BF7047D20728BF31F8023B48BFA3
:1053200011F8012B28BF20F8023B48BF00F8012BE1
:1053300070474FF0000200B5134694469646203958
:1053400022BFA0E80C50A0E80C50B1F12001BFF43E
:10535000F7AF090728BFA0E80C5048BF0CC05DF8A4
:1053600004EB890028BF40F8042B08BF704748BFF2
:1053700020F8022B11F0804F18BF00F8012B704766
:105380004FF0013C50F8042B51F8043B9A4221D1D4
:10539000A2EB0C03934313EACC1317D150F8042B60
:1053A00051F8043B9A4215D1A2EB0C03934313EA44
:1053B000CC130BD150F8042B51F8043B9A4209D17D
:1053C000A2EB0C03934313EACC13DBD04FF00000A5
:1053D000704700BFD01A01BAB1FA81F101F018018B
:1053E00022FA01F0CB40C1F12001DBB2C0B2C01AF9
:1053F0002CFA01F3D11A914311EAC311E6D1704797
:10540000704770477047000010B500F0F1FD001DB7
:1054100010BD00BFB92C0000004870478C2200204E
:10542000704770477047704738B504460A460020F9
:105430006946AFF30080002808BF38BD02460099D6
:10544000204600F0DDFD012038BD012001F0ACB8A0
:10545000F8B5AFF30080054600200C46102000BFD1
:105460000646A819A0420DD9324669460020AFF37E
:105470000080070008BF01F097F80098A04218BF0D
:105480000546C419FFF7C8FF05600746F01D20F068
:1054900007004619284600F00AF8B44208BFF8BDD4
:1054A000A21B31463868BDE8F84000F0A9BD0021D4
:1054B0000160C0E9011070471020704710B500F07E
:1054C0009BFD006810BD10B5044600F095FD04601A
:1054D00010BD2DE9F0470D4699469246044600F16D
:1054E00024080168880604D5E06921F010012160D4
:1054F00000E00120A84201DD471B00E00027A16970
:105500007A1902EB0900081AA0612078C00602D4BB
:105510002046FFF7BFFC002608E0D4E901211AF875
:1055200006009047206A401C761C20624E45F4DB42
:105530002078C0060AD52046FFF7ACFC06E0D4E987
:10554000012130209047206A401C2062381EA7F1BC
:105550000107F4DC07E0D4E9012118F805009047C1
:10556000206A401C2062281EA5F10105F3DC2046BC
:10557000FFF7A6FC2078000602D50220BDE8F087E0
:105580000120FBE770472DE9FF4F0C461E464FF008
:10559000FF378BB0D2E90001DDF860800A908A46BF
:1055A000C1F30A5505B93D46002108464FF00000F9
:1055B000BAF1000F00F4400005DA00EB80004FF470
:1055C000400101EA50004FEA9059B9F1010F00DDA6
:1055D000B9460A9850EA4A000ED044F61050A5F297
:1055E000FF3545432F14B8F1000F1ED07542291E18
:1055F0001EDDC9F100021CE0B8F1010F4FF0000000
:1056000001D0302103E0F24305E02154401CB042B8
:10561000FBDB30460022002121540B99C1F80880A1
:10562000C1E900200FB0BDE8F08FBD1B6D1CDEE7A7
:105630004A4600DA694206A800F044FF06AB93E848
:10564000070003AB83E8070050460A9901F081FA8E
:105650008DE80700A0F500501F3800900398002D3A
:105660000ADD42F21F014A460844002303A90390C1
:10567000684601F02DFD09E0A0F500504A461F38AC
:10568000002303A90390684601F04CFD8DE8070054
:105690000004000C03D04FF0FF30410800E010463A
:1056A000B8F1000F03D00022009215461EE0751ECF
:1056B00005D400F0BFFC303262556D1EF9D5B346FB
:1056C0000122084302D000227F1C04E02078302809
:1056D00001D100227F1E002A099784D01DE0112DE0
:1056E00007DA00F0A7FC303262556D1C50EA010267
:1056F000F5D1084302D00098C8B10EE00021681E21
:1057000005E0235C625C63542254401E491C8142C4
:10571000F7DBAB46A81B401E0990002004F80B00E5
:105720000B98099AC0F80880C0E9002B7AE7112687
:105730004FF0000857E72DE9F04F88460446D21D88
:1057400022F0070191B0D1E90001CDE90A0101F091
:1057500035FE02460B98C00F01D02D2007E02068CF
:10576000810701D52B2002E0202101EAC000032A95
:10577000099001D0072A05DB03464146204600F088
:10578000A7FC0BE12078800601D5E06900E0062047
:10579000B8F1650F814606D0B8F1660F18D0B8F1A0
:1057A000670F70D131E00020B9F1110F009001DBDB
:1057B000112301E009F101030AAA01A90CA8FFF7CE
:1057C000E2FEDDE90C70002609F10105834647E0A1
:1057D00001204B4600904FF000470AAA01A90CA8EF
:1057E000FFF7D1FEDDE90DB00C995D46002610B93A
:1057F00009F101000D18B9EB050003D4C0F1FF3623
:1058000009F10105A5EB09002BE0B9F1010F01DA5F
:105810004FF001090020B9F1110F0090484601DD59
:10582000112300E003460AAA01A90CA8FFF7ABFE6A
:10583000DDE90C704D4600268346207800070AD427
:10584000AB4500DA5D4601A8012D04DD411911F8D0
:10585000011C302907D04F4502DA17F1040F04DA92
:10586000012082460FE06D1EEEE7002F02DCED1BEB
:105870003E4403E0781CA84200DD7D1CB81B00F10B
:10588000010A4FF000472078000703D4AA4501DB46
:105890004FF0FF3A0021B7F1004F0DF143088DF8AA
:1058A000431024D002202B23002F01DA7F422D2326
:1058B0000A21021EA0F1010000DC5FB197FBF1FCA0
:1058C00097FBF1F201FB1C7C17460CF1300C08F839
:1058D00001CDEEE7A8F1010003702188090501D58B
:1058E000452100E06521A0F1010800F8011C09989C
:1058F0000FA9A1EB0807FF1D00B10120411901EB21
:10590000EA70A1693844081A401EA0612078C006D8
:1059100002D42046FFF7BEFA099828B1D4E9012144
:105920009047206A401C20622078C00622D520467D
:10593000FFF7B0FA1EE0002E04DBB34502DD01A83C
:10594000805D00E03020D4E901219047206A401CAE
:105950002062761CAAF101005FEA000A0AD100F079
:1059600047FBC0680168405CD4E901219047206A88
:10597000401C2062281EA5F10105DCDC07E0D4E90B
:10598000012118F8010B9047206A401C2062381E44
:10599000A7F10107F3DC2046FFF792FA032011B0CC
:1059A00041E6000001694A1C02610878704700B5B1
:1059B0008FB0CDE901310021059105497944CDE948
:1059C000031011466846FFF7F5FA0FB000BD00005E
:1059D000E5FFFFFF0A6802F8010B0A60704700004C
:1059E0002DE9FF4F06468BB00878FF2806D0491CEA
:1059F0002D2805D000244FF0000908E000200CE01D
:105A00000124F8E709EB8903491C00EB43090878F6
:105A1000FF28F7D114B1C9F10000814610780025A4
:105A20002C46AA4629462D2801D02B2804D1521CE9
:105A30002D2813D0002082468B461078FF280FD0E7
:105A40004FF0000C0A21521CA5FB017804FB0181D8
:105A500005FB0C11C5194BEB0104EEE70120EAE749
:105A6000002108464FF00000BAF1000F02D000EB11
:105A700080004008C0F38157012F01DD4FF0FF3750
:105A80000E9955EA040009EB01080BD04FF002090A
:105A900018F5FA7F16DA4FEACA70002F706008DD39
:105AA000012007E04FEACA70C6E900B00FB0BDE8B8
:105AB000F08F0020306000F09FFAC0F800901821AD
:105AC000084616E0B8F5FA7F18DD002F02DAF7482D
:105AD000784401E0F6487844D0E90010C6E90010A7
